:020000040800F2
:1000000038A50220050500080D0500080DB30008FD
:100010001105000813050008150500080000000080
:10002000000000000000000000000000ED030008D8
:1000300019050008000000008D040008F104000804
:100040001F0500081F0500081F0500081F05000800
:100050001F0500081F0500081F0500081F050008F0
:100060001F0500081F0500081F0500081F050008E0
:10007000115500081F050008255500081F05000838
:100080001F0500081F0500081F0500080D4C00088B
:100090003D4B00081F050008C94B00081F0500085C
:1000A0001F0500081F0500081F0500081F050008A0
:1000B0001F0500081F0500081F0500081F05000890
:1000C0001F0500081F0500081F0500081F05000880
:1000D0001F050008DDC000081F0500080DC200084C
:1000E0001F0500081F0500081F0500081F05000860
:1000F0001F0500081F0500081F0500081F05000850
:100100001F0500081F0500081F0500081F0500083F
:100110001F0500081F0500081F0500081F0500082F
:100120001F0500081F050008395500081F050008B5
:100130001F0500088D5500081F0500081F05000851
:100140001F0500081F0500081F0500081F050008FF
:100150001F0500081F0500084D5500081F05000871
:100160001F0500081F0500081F0500081F050008DF
:100170001F0500081F0500081F05000800000000FB
:100180001F0500081F0500081F0500081F050008BF
:100190001F0500081F0500081F0500081F050008AF
:1001A00000000000000000001F05000800F002F839
:1001B00000F0C4F80AA090E8000C82448344AAF13D
:1001C0000107DA4501D100F0B9F8AFF2090EBAE83B
:1001D0000F0013F0010F18BFFB1A43F0010318477B
:1001E00094960200B49602000A444FF0000C10F8F6
:1001F000013B13F0070408BF10F8014B1D1108BFA5
:1002000010F8015B641E05D010F8016B641E01F844
:10021000016BF9D113F0080F1EBF10F8014BAD1C94
:100220000C1B09D16D1E58BF01F801CBFAD505E0B2
:1002300014F8016B01F8016B6D1EF9D59142D6D30C
:10024000704700000023002400250026103A28BF34
:1002500078C1FBD8520728BF30C148BF0B60704738
:100260006E2901F03481702900F01F83662927F080
:100270003583652927F03283672927F02F83612989
:1002800027F02E8303681B0A28BF41F080016929EB
:1002900000F09082642900F08D82752900F08A8236
:1002A0006F2901F01B82782900F0EB82E92901F027
:1002B000B581E42901F0B281F52901F0AF81EF2980
:1002C00001F01882F82900F0EA820368DB0928BFF0
:1002D00041F08001632901F03681732901F03B81EF
:1002E000E32902F07B81F32902F08081002070472E
:1002F0001FB527F0E9FA9DE8030000F03DF901F091
:100300007AFD0400002000211BF0D2FA401C60603E
:10031000002000211BF0E2FAA060002000211BF069
:10032000F3FAE06001F0B4FB00F052FF1FBD10B51E
:10033000002001F0B3FC01F023FC10BD03F058F8DD
:100340001146FFF7D5FF0FB400F00EF80FBC16F002
:1003500025FF00F067FC03B4FFF7E9FF03BC14F0CE
:100360003AFC00007047000004B017F0EDFA0448B2
:10037000002117F049FC17F0F9FA00F053FC0000D7
:100380005401002080F309887047EFF3098070471B
:10039000684680F3098804480078C00714BF02202B
:1003A000032080F314887047147C0208DFF818C01B
:1003B000EFF305831B0618BF6047EFF31483DB07D9
:1003C00008BF604700DF70478F7D0108DFF818C065
:1003D000EFF305831B0618BF6047EFF31483DB07B9
:1003E00008BF604700DF70473D800108EFF30980D8
:1003F000816911F8021C99BB90E80F1010B5E04715
:10040000BDE81040EFF3098C8CE807001C4B93E823
:100410000600914208BF704781B11EF0100F06BF61
:100420002CED108A0120002081F825002CE9F00F26
:10043000C1F828C00CB418F005FB0CBC1A60D2F847
:1004400028C0BCE8F00F92F8250000281ABFBCECC9
:10045000108A6FF0120E6FF0020E8CF3098870474D
:1004600010B5084A1268914209D8074C54F8214047
:1004700090E80F10A047EFF3098C8CE80F0010BD37
:1004800044020020144B0008144B000810B518F06B
:10049000EFF8BDE81040154B93E80600914208BF05
:1004A0007047EFF3098C1EF0100F06BF2CED108A79
:1004B0000120002081F825002CE9F00FC1F828C0A8
:1004C0000CB418F0BFFA0CBC1A60D2F828C0BCE813
:1004D000F00F92F8250000281ABFBCEC108A6FF0CC
:1004E000120E6FF0020E8CF3098870474402002050
:1004F00010B518F081FBCCE710B517F045FC18F0EB
:100500007BFBC6E70948804709480047FEE7FEE74E
:10051000FEE7FEE7FEE7FEE7FEE7FEE7FEE7FEE7B3
:1005200004480549054A064B7047000011C0000801
:10053000AD0100083825022038A5022038650220C8
:100540003865022000487047200602207047704737
:1005500038B504460A4600206946AFF300800028FB
:1005600008BF38BD02460099204600F0F7FE012082
:1005700038BD012001F0B3BBF8B5AFF300800546EC
:1005800000200C46102000BF0646A819A0420DD935
:10059000324669460020AFF30080070008BF01F033
:1005A0009EFB0098A04218BF0546C41900F032FE19
:1005B00005600746F01D20F007004619284600F0A8
:1005C0003AFEB44208BFF8BDA21B31463868BDE808
:1005D000F84000F0C3BE53EA020C00F069802DE938
:1005E000F04B4FF00006002B1FBFB3FA83F503FA60
:1005F00005F424FA05F65E4012BF1643B2FA82F5FE
:1006000002FA05F4C5F120051EBF22FA05FC44EAF2
:100610000C04203556EA044C4FEA144418BF641CFD
:100620004FF000084FF00009904271EB030C39D3F2
:10063000002919BFB1FA81F701FA07F6B0FA80F77D
:1006400000FA07F6C7F120071EBF20FA07FC46EAAA
:100650000C062037B6FBF4FCA7EB0507103F07F0AC
:100660001F0BCBF120060CFA0BFB2CFA06F644BF4D
:10067000B3460026202FA4BF5E464FF0000B5BEA76
:10068000060C08BF4FF0010B19EB0B09ABFB027C0A
:1006900048EB0608C01B06FB02CC0BFB03CC71EB3E
:1006A0000C01C1E70B46024641464846BDE8F08BC7
:1006B00013B54FF000004FF00001AFF30080BDE82C
:1006C0001C4070470A46014903F020BBD4060220B3
:1006D0000FB4044910B503AA029803F017FB10BC2D
:1006E0005DF814FBD40602200FB41CB5084B06AA13
:1006F0007B4469460090059800F003FF0446002003
:10070000694600F011FF20461CBC5DF814FB000098
:10071000350E000070B5044685690068C10601D534
:10072000302600E02026C00707D070BDD4E90121A3
:1007300030469047206A401C20626D1EF6D570BD81
:1007400070B5044685690078C00707D170BDD4E94B
:10075000012120209047206A401C20626D1EF6D5A2
:1007600070BD70B50C460546012A05D02878800674
:1007700000D5EA69002302E0012305E05B1C9342F7
:1007800002D2E05C0028F9D1A869E618C01AA86175
:10079000286A184428622846FFF7BCFF04E0D5E920
:1007A000012114F8010B9047B442F8D32846FFF713
:1007B000C7FF70BD2DE9F041064600241068752979
:1007C000314616A510D000F017FE002802DA40428C
:1007D00013A507E031688A0701D512A502E0490791
:1007E00004D511A5012401E000F00FFE00210A222A
:1007F00006F1240709E0B0FBF2FCB0FBF2F302FBC8
:100800001C00303078541846491C0028F3D1234688
:100810002A463046BDE8F04100F000BE000000006E
:100820002D0000002B00000020000000F0B40D4659
:100830000188090502D5214C7C4402E01F4C7C4410
:100840000E34002100F1240608E002F00F0712091F
:10085000E75D42EA03721B097754491C52EA030719
:10086000F3D102780023120704D5702D06D009B108
:10087000022311342246F0BC00F0D0BD0123103415
:10088000F8E770B504460D462146106800F0BDFD3E
:10089000024629462046BDE870400023C6E7D21D27
:1008A00022F00703D3E90023C0E70368126843F08E
:1008B000200303600823C3610023B7E77C770200AD
:1008C0002DE9F05F894604464FF0000ADFF874B165
:1008D000FB44C0F820A02046E1688847002874D077
:1008E000252806D0D4E901219047206A401C2062C7
:1008F000F1E700265F462046E16888472028054644
:1009000007DB312D05D2781910F8200C08B1064309
:10091000F1E7B00701D526F00406C4F81CA00027B3
:10092000C4F818A02A2D09D0284614F006F938B3C7
:1009300004EB8708303DC8F8185019E059F8041B3B
:10094000204604EB87029161E1688847012F054644
:1009500018D1E069002820DA26F020061DE0D8F83A
:10096000180000EB800005EB40003038C8F8180094
:100970002046E1688847054614F0DFF80028EED1EC
:10098000012F0AD02E2D08D12046E16888477F1C10
:100990000546022F46F02006C4DBA069002803DAD2
:1009A000404246F00106A061F00701D026F0100693
:1009B0006C2D0BD0682D09D04C2D39D06A2D35D037
:1009C000742D35D07A2D33D016E038E0E1682F460B
:1009D00020468847B842054609D16C2F26D04FF4EF
:1009E0008060E168064320468847054604E06C2F96
:1009F0001AD04FF4807006430DB3A5F141001928B9
:100A000002D8203546F400664A462946204626602C
:100A10004E46FFF725FC80B101280BD0F61D26F0CD
:100A2000070000F1080956E74020E4E78020D8E7F6
:100A30000020D6E706F104094DE7284652E7206A70
:100A4000BDE8F09F0C7702002DE9FF5F1D464FF0D7
:100A5000FF3B91464FF000085F46D5E90146A96982
:100A600001987F1C8847296A824688470028F6D16A
:100A7000BAF1FF3F0CD0002E24F4C06419DD6006EB
:100A800014D5BAF12B0F09D0BAF12D0F0ED103E016
:100A9000584604B0BDE8F09F44F48064A969019809
:100AA0007F1C8847761E8246002E02DDBAF1300F89
:100AB00003D0B9F1000F26D032E0A969761E019863
:100AC0007F1C44F400748847002E824605DDBAF18D
:100AD000780F06D0BAF1580F03D0B9F1000F10D03B
:100AE0001EE0B9F1000F02D0B9F1100F18D1A969B9
:100AF000761E01987F1C24F40074884782461020DB
:100B000002E0082000E00A20814609E0A96908FB0C
:100B10000908761E01987F1C44F4007488478246B9
:100B2000002E05DD4946504600F00CFE0028EDDAA7
:100B3000E96901988847A00502D46FF00100A8E791
:100B4000E00725D1600613D5600502D5C8F1000085
:100B500000E0404629680A1D2A600968220501D57F
:100B6000087015E0220701D5088011E008600FE049
:100B70002868011D29600068210502D580F80080E1
:100B800006E0210702D5A0F8008001E0C0F800804F
:100B900038467EE72DE9F041044600F14C0738461F
:100BA00013F0D2FFE068810712D0800601D5A66A53
:100BB00004E0A169606808442169461A204600F0F3
:100BC000D7FE002205463146204600F0FFFD00E03A
:100BD0000025384613F0DEFF2846BDE8F0812DE9F8
:100BE000F04118B1BDE8F041FFF7D4BF0B4E00252E
:100BF000304613F0A9FF0A4C6F1E07E02046FFF7AE
:100C0000C9FF00B13D46206D20F00104002CF5D154
:100C1000304613F0BFFF2846DFE70000FC0200204B
:100C20008006022010B50446AFF300802046BDE8E0
:100C30001040FFF790BB2DE9F041074615460E46E0
:100C4000102000F046FB04000AD06760C4E902658A
:100C500000F0EAFA0168216004600020BDE8F0813C
:100C60000120FBE70EB5054614460E4613A003F01F
:100C7000D5F8284603F0D2F816A003F0CFF8304696
:100C800003F0CCF815A003F0C9F800218DF80B1083
:100C90000A210DF10A008DF80A1008E094FBF1F228
:100CA00001FB124294FBF1F4303200F8012D002CCC
:100CB000F4DC03F0B3F800F0E6FF00002A2A2A2053
:100CC000617373657274696F6E206661696C6564C7
:100CD0003A2000002C2066696C6520002C206C698D
:100CE0006E65200040EA010310B59B070FD1042A6E
:100CF0000DD310C808C9121F9C42F8D020BA19BAE7
:100D0000884201D9012010BD4FF0FF3010BD1AB14B
:100D1000D30703D0521C07E0002010BD10F8013BA0
:100D200011F8014B1B1B07D110F8013B11F8014BC7
:100D30001B1B01D1921EF1D1184610BD10B5431CEA
:100D400002E010F8011B71B18107FAD14FF00132B6
:100D500002C88C1A8C4314EAC211F9D0C01A0A06D0
:100D600003D0C01E10BDC01A10BD0A0401D0801EE1
:100D700010BD0902FCD0401E10BD032A40F2308095
:100D800010F0030C00F0158011F8013BBCF1020FCC
:100D9000624498BF11F801CB00F8013B38BF11F84D
:100DA000013BA2F1040298BF00F801CB38BF00F864
:100DB000013B11F0030300F06B80083AC0F008809B
:100DC00051F8043B083A51F804CBA0E80810F5E7C5
:100DD000121D5CBF51F8043B40F8043BAFF30080A8
:100DE000D20724BF11F8013B11F801CB48BF11F81D
:100DF000012B24BF00F8013B00F801CB48BF00F8ED
:100E0000012B7047431A28BF9A427FF6B6AF032AD8
:100E10001044114440F2268010F0030F1EBF11F859
:100E2000013D521E00F8013D10F0030F7FF4F6AFB4
:100E300011F0030300F0B287083AC0F00B8051F8BC
:100E4000043D083A51F804CD40F8043D40F804CD83
:100E5000FFF7F3BF121D5CBF51F8043D40F8043D9D
:100E6000AFF30080D20724BF11F8013D11F801CD86
:100E700048BF11F8012C24BF00F8013D00F801CD56
:100E800048BF00F8012C704701B5FFF776FF01BDA0
:100E900010B5203AC0F00B80B1E81850203AA0E815
:100EA0001850B1E81850A0E81850BFF4F5AF5FEA49
:100EB000027C24BFB1E81850A0E8185044BF18C9FC
:100EC00018C0BDE810405FEA827C24BF51F8043BA3
:100ED00040F8043B08BF7047D20728BF31F8023BF7
:100EE00048BF11F8012B28BF20F8023B48BF00F88B
:100EF000012B704702F0FF0343EA032242EA024259
:100F000000F002B84FF000020429C0F0128010F087
:100F1000030C00F01B80CCF1040CBCF1020F18BFD5
:100F200000F8012BA8BF20F8022BA1EB0C0100F068
:100F30000DB85FEAC17C24BF00F8012B00F8012B3B
:100F400048BF00F8012B70474FF0000200B5134670
:100F500094469646203922BFA0E80C50A0E80C50D9
:100F6000B1F12001BFF4F7AF090728BFA0E80C508A
:100F700048BF0CC05DF804EB890028BF40F8042B83
:100F800008BF704748BF20F8022B11F0804F18BFF0
:100F900000F8012B704700004FF0013C50F8042B83
:100FA00051F8043B9A4221D1A2EB0C03934313EA7C
:100FB000CC1317D150F8042B51F8043B9A4215D1A9
:100FC000A2EB0C03934313EACC130BD150F8042B80
:100FD00051F8043B9A4209D1A2EB0C03934313EA64
:100FE000CC13DBD04FF00000704700BFD01A01BA1D
:100FF000B1FA81F101F0180122FA01F0CB40C1F100
:101000002001DBB2C0B2C01A2CFA01F3D11A91430D
:1010100011EAC311E6D1704770477047704710B5A9
:101020000246BFF35F8F52E8000F431842E80034D6
:10103000002CF8D1BFF35F8F10BD10B50246BFF38F
:101040005F8F52E8000F431A42E80034002CF8D1B9
:10105000BFF35F8F10BD10B50246BFF35F8F52E83C
:10106000000F40EA010342E80034002CF7D1BFF33F
:101070005F8F10BD10B50246BFF35F8F52E8000FBF
:1010800000EA010342E80034002CF7D1BFF35F8F80
:1010900010BD10B50246BFF35F8F52E8000F80EA23
:1010A000010342E80034002CF7D1BFF35F8F10BD7D
:1010B00010B50246BFF35F8F52E8000F00EA01034C
:1010C000DB4342E80034002CF6D1BFF35F8F10BD44
:1010D0000246BFF35F8F52E8000F084442E8000366
:1010E000002BF8D1BFF35F8F70470246BFF35F8FCD
:1010F00052E8000F401A42E80003002BF8D1BFF37A
:101100005F8F70470246BFF35F8F52E8000F0843BE
:1011100042E80003002BF8D1BFF35F8F704702460F
:10112000BFF35F8F52E8000F084042E80003002B36
:10113000F8D1BFF35F8F70470246BFF35F8F52E86D
:10114000000F484042E80003002BF8D1BFF35F8F47
:1011500070470246BFF35F8F52E8000F0840C0435C
:1011600042E80003002BF7D1BFF35F8F7047BFF356
:101170005F8F50E8003F8B4201D00020704740E86D
:101180000023002BF5D1BFF35F8F0120704703468A
:10119000BFF35F8F53E8000F884206D143E8002079
:1011A0000028F7D1BFF35F8F08467047BFF35F8F0A
:1011B00050E8002F40E80013002BF9D1BFF35F8FF8
:1011C0001046704700210160BFF35F8F7047000039
:1011D00070B5064C7C44064D7D4403E020682044F5
:1011E0008047241DAC42F9D170BD00003888020050
:1011F0008488020010B513F07AF8BDE8104012F0B0
:10120000F5BF000010B500F0F6FD001D10BD00BFD9
:10121000A1A6010010B5FFF795F9083010BD10B573
:10122000FFF790F9343010BD10B5FFF78BF9383067
:1012300010BD7047704700210160C0E901100C30FB
:1012400013F092BC102070470B3020F0070070475D
:101250002DE9F04117460E460446FFF7F5FFA04280
:10126000054633D9002F1CBF06F10C0013F06CFCAF
:1012700030467468F4B12168A94217D305F1080219
:1012800091423CBF6168416007D3626861194A605E
:101290002268521B0A6041602560002F1CBF06F1C6
:1012A0000C0013F077FC201DBDE8F0812046646837
:1012B000002CE0D129463046FFF74AF90028D7D163
:1012C000002F1CBF06F10C0013F064FC0020BDE8E9
:1012D000F08110B50446FFF79DFF01682046BDE888
:1012E00010400122B4E770B516460D46041F0028D1
:1012F00008BF70BD002E1CBF05F10C0013F024FCCC
:101300002B465868002818BFA04238BF0346F8D3C0
:101310001968CA18A24218BF5C6003D122681C4633
:101320001144196021680A19824218BF606004D113
:1013300042686260006808442060002E1CBF05F10E
:101340000C0013F027FC70BD10B50446FFF762FFD8
:1013500001682046BDE810400122C4E730B40446CD
:101360008C464368002B18BF634538BF1846F8D336
:1013700003681844604507D0C81C20F0070000F13E
:10138000040CACEB0100121A2146CCF8002030BC52
:1013900000220CF10400FFF7A6BF10B500F030FDED
:1013A000006810BD10B5044600F02AFD046010BDB1
:1013B0000FB4014610B504AA039802F0A7FC10BCB4
:1013C0005DF814FB7CB51D4616460C00009001D05C
:1013D0002044401E074B7B442A4669460190304614
:1013E00000F08FF805461CB10020694600F09CF81B
:1013F00028467CBDDF11000009684A0501D540B2CE
:101400007047C905FCD500B2704709684A0501D587
:10141000C0B27047C905FCD580B270472DE9F047CE
:101420000D4699469246044600F124080168880654
:1014300004D5E06921F01001216000E00120A842FC
:1014400001DD471B00E00027A1697A1902EB0900C2
:10145000081AA0612078C00602D42046FFF75AF986
:10146000002608E0D4E901211AF806009047206A16
:10147000401C761C20624E45F4DB2078C0060AD55D
:101480002046FFF747F906E0D4E9012130209047D4
:10149000206A401C2062381EA7F10107F4DC07E037
:1014A000D4E9012118F805009047206A401C206209
:1014B000281EA5F10105F3DC2046FFF741F920784D
:1014C000000602D50220BDE8F0870120FBE7116885
:1014D0000268006A530501D508700AE0D30501D5FA
:1014E000088006E0130603D5C217C1E9000200E038
:1014F000086001207047000001694A1C02610878F9
:10150000704700B58FB0CDE9013100210591054943
:101510007944CDE9031011466846FFF7D1F90FB0C1
:1015200000BD0000E5FFFFFF0A6802F8010B0A603A
:10153000704710B5436913B1AFF3008001E0FFF7C6
:1015400010F9012010BD127800F124010A70002268
:101550004A700122EDE711684FF0FF32E9E7000021
:101560002DE9FF5F15468A460446DFF8AC80F84453
:101570000027D8E900103E46CDE9001010E03AF807
:1015800016106A4602A801F075FE411C07D02178AA
:10159000890603D5E269391891420DD80744761CB3
:1015A0002078800602D5E069B84205DDAE42E6DB70
:1015B0003AF816000028E2D1A069C01BA0612046BD
:1015C000FFF7A8F8D8E90010CDE90010002017E0D7
:1015D0003AF818106A4602A801F04CFEB0F1FF3F3D
:1015E00081460BD000250DF1080B05E0D4E901215F
:1015F0001BF8050090476D1C4D45F7D308F101001D
:10160000B0428046E4DB206A384420622046FFF77F
:1016100097F8BDE8FF9F0000366D02002DE9F0410C
:101620008046D21D22F007020025D2E90002F529EA
:1016300015A614D0011E72F1000106DA0023D0EBCA
:10164000030063EB020211A608E0D8F800108B0734
:1016500001D50FA602E0490701D50EA601251146C6
:10166000002408F1240704E000F0CCFB30323A55A6
:10167000641C50EA0102F7D12B463246214640460F
:10168000BDE8F041FFF7CABE000000002D000000D9
:101690002B0000002000000030B4002100F12404E1
:1016A00008E002F00705D208303542EA4372DB0851
:1016B0006554491C52EA0305F3D10468002310A2C3
:1016C000250708D504F020040C4304D0C469012385
:1016D0000CA2641EC46130BCFFF7A0BE10B5044666
:1016E00021461068FFF791FE02462046BDE81040F3
:1016F0000023D1E7D21D22F00701D1E90023CBE777
:1017000000000000300000000FB400B58DB010A93B
:10171000099000910B904FF0FF300A9000200C9040
:10172000064878440690064878446A4607900F9920
:1017300009A800F01BF80DB05DF814FB670000006D
:101740007F0000003A2800D2303820F02002412AE1
:1017500001D3A2F13700884201D34FF0FF30704728
:10176000026811441378016018467047D16005493A
:101770007944516104497944116200211161114693
:1017800000F038BFEDFFFFFF15070000426842B1CF
:10179000016811F8013B23B1521EC0E9001218463E
:1017A00070470121C160881E704742685AB1C36802
:1017B000016843B983688B4205D0491E521CC0E9B9
:1017C0000012002070474FF0FF3070472DE9F041C4
:1017D000044616460D464769007B80072ED03846E2
:1017E00013F00FFA50BB3EB3012E02D0022E25D1CA
:1017F00004E0204600F066F805441DE0384613F08A
:10180000EEF9E168002841F01001E16005DA2046B8
:1018100000F07AF80120BDE8F081C9030BD56268B9
:10182000E16A914200D81146A26911442269891ADD
:10183000814200DD08460544002D01DA0220EAE776
:10184000E16A6068E268814206D29103E06203D5F2
:1018500022F4003141F01002A6690027AE4213DCE9
:10186000E16A814201D90B4600E0034603EB060C16
:101870002369ACEB030CAC4506DD814201D98C46F3
:1018800000E084469C4505D1A760276042F0200017
:10189000A5620DE0AD1BE669AE1B8142A66000D9D2
:1018A0000846C01A281A20605819606022F02000EB
:1018B00003490840E060002084F84870ABE700006E
:1018C000BFCFD7FF10B50146C268900703D090067E
:1018D00007D5886A0AE000F093FA01210160881EAA
:1018E00010BD8B69486818440B69C01A91F84830DC
:1018F0001BB191F84910401A10BD1103FCD5002806
:10190000FADD401E10BD0000C16821F4001141F055
:101910008001C16000218160016070472DE9F047BE
:10192000814614460E464FF0FF383248D568576955
:10193000054209D03846A16913F0AAF9002811DB45
:101940002C48C0430540E5602B46324649463846A0
:1019500013F0B4F9A16920F00042B21A1144002832
:10196000A16103D02046FFF7CFFF4046BDE8F087D6
:1019700070B504460569C06A6168884200D80846A7
:10198000E16821F42011E160C90312D5A84208D012
:101990002246411B2846FFF7C1FF10B14FF0FF3030
:1019A00070BD0020E562C4E90150E06820F4803099
:1019B000E060002070BD10B50446C06820F0200033
:1019C000E060A16AA06988420DD02046FFF7D0FFF1
:1019D000E06820F4405040F01000E060A06AA06190
:1019E0002069E062606044F24001E0688843E060A2
:1019F00010BD0000100002002DE9F04704464FF032
:101A000000094FF0FF37C568D4E90486A80707D05E
:101A10002046FFF7ADFF304613F0CAF8002802DA7F
:101A20003846BDE8F087280502D54046FFF78CFC14
:101A30004C212046FFF788FA206D20F00100206538
:101A40004846EEE770B5044600F14C05284613F011
:101A50007BF82046FFF736FF0446284613F09AF835
:101A6000204670BD2DE9F04116460F46054600F1AF
:101A70004C04204613F068F8324639462846FFF7F2
:101A8000A5FE0546204613F085F82846BDE8F081FE
:101A900010B565485421FFF757FA64485421FFF701
:101AA00053FA63485421FFF74FFA62485E49624A8D
:101AB000624B01605D4810605D4A1A60431C0B6513
:101AC000511C01650120106557484C3013F04CF84B
:101AD00056484C3013F048F855484C3013F044F851
:101AE000574813F041F858484F4A56A1784401F03E
:101AF00048FA20B9544878440A3801F0E7FB5448C2
:101B00004A4A52A1784401F03CFA20B9504878443E
:101B10000A3801F0DBFB4F48454A4CA1784401F0FC
:101B200030FA20B94B4878440A3801F0CFFB402303
:101B30003D48DC000021224601F097F920B14248DF
:101B40007844543801F0C2FB384822464023002133
:101B500001F08BF920B13E487844543801F0B6FBCF
:101B6000334822461023002101F07FF9002806D0D7
:101B700038487844BDE81040563801F0A7BB10BD86
:101B80002B482DE9F041006D2D4E20F00104304628
:101B900012F0DAFF244D4C35284612F0D5FF2248CA
:101BA000FFF72AFF284612F0F5FF2846AFF3008022
:101BB0001E4D4C35284612F0C7FF1C48FFF71CFF8E
:101BC000284612F0E7FF2846AFF30080184D4C3549
:101BD000284612F0B9FF1648FFF70EFF284612F00C
:101BE000D9FF2846AFF3008014E0206D20F00105F6
:101BF00004F14C00074612F0A7FF2046FFF7FCFE59
:101C0000384612F0C7FF3846AFF300802046FFF792
:101C10009BFB2C46002CE8D1304612F0BBFF084855
:101C2000AFF30080BDE8F08180060220D4060220D8
:101C300028070220A0020020A4020020A802002001
:101C4000FC02002072000000186302007700000010
:101C500007630200F76202000A460146014801F0EC
:101C600062BA0000C824022010B5024801F0D4F97D
:101C7000004810BDF424022018B1006808B100200B
:101C800070470120704710B5002001F018FBFEF7E7
:101C90004EFBBDE81040012012F09DBF2DE9F04140
:101CA0000646FFF7C1FA8046454613E016B1E068E4
:101CB000B0420ED120682860D4E90101D8F8007044
:101CC00088472046FFF740FBD8F80000B842EBD128
:101CD00000E025462C68002CE8D1BDE8F08110B565
:101CE00001F0FCFABDE8104001F0E4BA10B501F0D3
:101CF0001DFBBDE8104001F0DDBA40EA01030246D9
:101D000030B59B0710D14FF0013400E008C208C97C
:101D10001D1B9D4315EAC41FF8D013F0FF0102F804
:101D2000011B0DD01B0AF8E711F8013B002B02F84C
:101D3000013B05D011F8013B002B02F8013BF3D128
:101D400030BD0022CBB210F8011B994200D1421ED7
:101D50000029F8D110467047520001F0FFBA421E28
:101D600012F8013F002BFBD111F8013B002B02F8C8
:101D7000013BF9D17047431A28BF9A427FF688A8E1
:101D8000104410F0030F11441EBF11F8013D521E04
:101D900000F8013D10F0030F7FF4F6AF103AC0F0E9
:101DA0000A8010B531E91850103A20E91850BFF4F4
:101DB000F9AFBDE81040530724BF31E9081020E90E
:101DC000081044BF51F8043D40F8043D12F0030FE1
:101DD00008BF7047D20728BF31F8023D48BF11F84D
:101DE000012C28BF20F8023D48BF00F8012C7047A5
:101DF00001F0C9BA00DE10B5FEF7A4FB203010BD1B
:101E000012F062BE30B5B0F10A024FEA900E71F1E5
:101E100000034EEA817EB0EB0E0061EB91014FEAC8
:101E2000101E4EEA017E10EB0E0041EB11114FEA3D
:101E3000102E4EEA016E10EB0E0041EB11214FEA1D
:101E4000104E4EEA014E10EB0E0041EB11414018CE
:101E500041F100014FEAD00040EA41704FEAD10160
:101E600010EB80054FEA810444EA907444EB0104CE
:101E70006D1944EB0404521BA3414FF0000348BF0B
:101E80000A3200D530BD401C41F1000130BD10B513
:101E90000446FFF7B7F90068005D00F0010010BDCF
:101EA00070472DE9FF4F0C461E464FF0FF378BB0B1
:101EB000D2E90001DDF860800A908A46C1F30A5534
:101EC00005B93D46002108464FF00000BAF1000F69
:101ED00000F4400005DA00EB80004FF4400101EA15
:101EE00050004FEA9059B9F1010F00DDB9460A9848
:101EF00050EA4A000ED044F61050A5F2FF35454393
:101F00002F14B8F1000F1ED07542291E1EDDC9F135
:101F100000021CE0B8F1010F4FF0000001D03021A9
:101F200003E0F24305E02154401CB042FBDB3046A5
:101F30000022002121540B99C1F80880C1E900203A
:101F40000FB0BDE8F08FBD1B6D1CDEE74A4600DA1E
:101F5000694206A801F018FD06AB93E8070003AB41
:101F600083E8070050460A9902F0C6F98DE8070099
:101F7000A0F500501F3800900398002D09DD42F2B3
:101F80001F014A46084403A90390684602F04FFC2B
:101F900008E0A0F500504A461F3803A903906846A0
:101FA00002F06DFC8DE807000004000C03D04FF038
:101FB000FF30410800E01046B8F1000F03D00022C6
:101FC000009215461EE0751E05D4FFF71BFF303248
:101FD00062556D1EF9D5B3460122084302D0002296
:101FE0007F1C04E02078302801D100227F1E002AC7
:101FF000099786D01DE0112D07DAFFF703FF303275
:1020000062556D1C50EA0102F5D1084302D00098D8
:10201000C8B10EE00021681E05E0235C625C6354D9
:102020002254401E491C8142F7DBAB46A81B401ED0
:102030000990002004F80B000B98099AC0F808805A
:10204000C0E9002B7CE711264FF0000859E72DE985
:10205000F04F88460446D21D22F0070191B0D1E925
:102060000001CDE90A0112F02AF902460B98C00FCF
:1020700001D02D2007E02068810701D52B2002E048
:10208000202101EAC000032A099001D0072A05DBBC
:1020900003464146204601F0D5F90BE12078800641
:1020A00001D5E06900E00620B8F1650F814606D051
:1020B000B8F1660F18D0B8F1670F70D131E0002089
:1020C000B9F1110F009001DB112301E009F10103C7
:1020D0000AAA01A90CA8FFF7E4FEDDE90C700026AE
:1020E00009F10105834647E001204B4600904FF07F
:1020F00000470AAA01A90CA8FFF7D3FEDDE90DB03D
:102100000C995D46002610B909F101000D18B9EBD4
:10211000050003D4C0F1FF3609F10105A5EB090064
:102120002BE0B9F1010F01DA4FF001090020B9F1FC
:10213000110F0090484601DD112300E003460AAA72
:1021400001A90CA8FFF7ADFEDDE90C704D46002695
:102150008346207800070AD4AB4500DA5D4601A823
:10216000012D04DD411911F8011C302907D04F451C
:1021700002DA17F1040F04DA012082460FE06D1E27
:10218000EEE7002F02DCED1B3E4403E0781CA84282
:1021900000DD7D1CB81B00F1010A4FF000472078DC
:1021A000000703D4AA4501DB4FF0FF3A0021B7F145
:1021B000004F0DF143088DF8431024D002202B234B
:1021C000002F01DA7F422D230A21021EA0F1010017
:1021D00000DC5FB197FBF1FC97FBF1F201FB1C7C8B
:1021E00017460CF1300C08F801CDEEE7A8F101001C
:1021F00003702188090501D5452100E06521A0F182
:10220000010800F8011C09980FA9A1EB0807FF1DA0
:1022100000B10120411901EBEA70A1693844081AA4
:10222000401EA0612078C00602D42046FEF772FA54
:10223000099828B1D4E901219047206A401C206206
:102240002078C00622D52046FEF764FA1EE0002E54
:1022500004DBB34502DD01A8805D00E03020D4E955
:1022600001219047206A401C2062761CAAF10100DF
:102270005FEA000A0AD1FFF7BEFDC0680168405C52
:10228000D4E901219047206A401C2062281EA5F154
:102290000105DCDC07E0D4E9012118F8010B9047C7
:1022A000206A401C2062381EA7F10107F3DC20469B
:1022B000FEF746FA032011B043E600002DE9F04F87
:1022C00004460D46D21D22F0070089B0D0E90092E5
:1022D00048461746394611F0F2FF0246F80F01D082
:1022E0002D2307E02068810701D52B2302E0202160
:1022F00001EAC0038DF820300BB1012000E000207E
:10230000032A824601D0072A04DB2946204601F031
:1023100099F83DE12078800601D40D2500E0E569BB
:10232000C7F30A560D2D49DA00214FEA175B08461C
:102330004FF00000002F00F4400007DA00EB8000AF
:102340004FF4400100EBD07001EA600081150129D3
:1023500001DD4FF0FF3100224FEA850CBCF1180F70
:1023600006D31346ACF118004FF08052C24003E090
:102370004FF4801323FA0CF30CF10C0CBCF1200F7A
:1023800004D3ACF1200C09FA0CF001E007FA0CF0D0
:1023900000294FF0004801DD18B90FE00ED140458B
:1023A0000CD319EB02095F4121B9404502D19F438B
:1023B00029EA0209BBEB175F00D0761C20880005D4
:1023C00002D57B48784402E079487844193808AA55
:1023D000302302F80A30037C0AF10101002E0AF1D1
:1023E000020A53546A4602DC4FF0300101E04FF01C
:1023F00031014FF001088DF8001002D0A6F2FF362F
:1024000003E059EA470100D06A4E002D02DC217832
:10241000090704D54FF002082E218DF80110C4469B
:1024200000210BE0C7F303433F01C35C491C6D1E51
:1024300002F80830052908F1010801DA002DF1DC65
:1024400000210CE000EB1973491C1B786D1E082954
:1024500002F808304FEA091908F1010801DA002DE5
:10246000F0DC2178890602D514E0A8F10108E045E6
:1024700005DD02EB080111F8011C3029F5D0B8F197
:10248000000F07DD02EB080111F8011C2E2901D114
:10249000A8F10108002D05DD3E2102F808106D1E8F
:1024A00008F10108407C002E02F8080008F101083C
:1024B00004DA2D20764202F8080002E02B2002F810
:1024C00008000A214FF47A70864208F101080BDBFC
:1024D00096FBF0F3303302F8083096FBF0F308F186
:1024E000010800FB136601E0642E0CDB642096FB00
:1024F000F0F3303302F8083096FBF0F308F10108EE
:1025000000FB136601E00A2E06DB96FBF1F030308B
:1025100002F8080008F1010896FBF1F001FB1060D9
:10252000303002F80800A16908F1010808EB050243
:1025300002EB0A00081AA0612078C00602D42046E7
:10254000FEF7E8F8216A08AE01EB0A00206204E019
:10255000D4E9012116F8010B9047BAF1010AF7D22C
:102560002078C00602D52046FEF7D4F86E4609E072
:1025700016F8010B3E280FD0D4E901219047206ABC
:10258000401C2062B8F10108F2D22046FEF7D8F8CC
:1025900009B00320BDE8F08F206A2844206203E0E0
:1025A000D4E90121302090476D1EEBD3F8E70000FD
:1025B000FB5E020002FCFFFFD1E900239A4202D237
:1025C000531C0B601070704710B5436913B1AFF323
:1025D000008001E0FEF7C4FF012010BD128800F169
:1025E000240182840022C2840122EDE711684FF0A9
:1025F000FF32E9E72DE9F34F4FF0000A0C4656464B
:102600008DB001200C9001F10C000B9062690B98C9
:1026100001219047051E2DD0252D2CD0216A8847F9
:10262000C0B162690B9801219047216A8847002850
:10263000F7D16269411E0B98904700E0761CA169B2
:102640000D988847216A88470028F7D1E1690D98DD
:102650008847DBE7A1690D988847A842074601D162
:10266000761CD3E7E1690D9888477F1C02D1BAF147
:10267000000F6FD06BE162690B9800273D46394629
:1026800090472A2804D162690B98012190470125BF
:10269000DFF8D08262690B9801219047A0F13001E8
:1026A0000A290AD24745E5DC07EB870100EB410721
:1026B000303FDFD445F01005ECE7E90601D46FF0B8
:1026C00000476C280AD04C2814D0682815D06A28F6
:1026D0000DD074281CD07A281AD01DE062690B989E
:1026E000012190476C2802D045F0040514E045F024
:1026F00002050DE045F020050AE062690B98012112
:102700009047682802D045F0080505E045F40065CB
:1027100062690B9801219047C4E9015765283DD0B3
:1027200019DC58287AD00CDC452837D004DC252861
:1027300026D041289ED131E046282FD0472899D174
:102740002CE05B2877D0612828D063287CD06428CF
:1027500023D15AE0F6E06F2848D008DC66281DD067
:1027600067281BD0692821D06E2816D127E0702851
:1027700045D0732868D0752847D078280DD14DE012
:10278000A1690D988847252805463FF469AFE1699E
:102790000D9888476D1C3FF46AAFD8E00D99234629
:1027A0006A466FF0010025F0FDF8C5E045F04000F5
:1027B00023464FF000026060A80736D43EE0E807E9
:1027C0007FF447AF2068011D21600068290501D50D
:1027D00006701BE7290701D5068017E7A90703D56F
:1027E000F117C0E9006111E706600FE745F040000E
:1027F00023464FF008026060A80716D41EE040F69A
:102800000E0125EA0100606016E045F04000234615
:102810004FF00A026060A80707D40FE045F04000BF
:102820006060A80708D5234610220D996FF00100BB
:1028300000F09AF880E007E0102223460D996FF02F
:102840000100FEF701F977E04FF0000963284F46D9
:10285000C8464B46CB4602D05B2806D038E0E80697
:1028600001D40120A060012732E06269D4F80CB0E5
:102870000B98012190475E2807D14FF00109494686
:102880006269D4F80CB00B989047216939B90021DE
:102890000A4603AB43F82120491C0829FADBD8B3C8
:1028A000216949B308F1010862690B980121904739
:1028B0005D28F4D1B9F1000F09D0002003A951F827
:1028C0002020D24341F82020401C0828F7DB03AB2E
:1028D0002069002820794FEA40701ED05B462246CE
:1028E000CDF80080CDE901970D9900286FF0010027
:1028F00020DA00F052FA1FE0C11703AA00EBD16101
:102900004B1121F01F0102EB8302411A13680120D1
:10291000884003431360C7E719E00D992246002859
:102920006FF00100009702DA00F039F904E000F0DE
:10293000C6F801E000F0BDF900280ADA401C06D113
:102940000C9820B14FF0FF300FB0BDE8F08F50462B
:10295000FAE7E90701D10AF1010A064400200C90C8
:1029600054E60000CCCCCC0C2DE9FF4F1C46914620
:102970004FF0FF3581B000218A468846D4E90167CF
:10298000A16902986D1C8847216A83468847002800
:10299000F6D1BBF1FF3F0CD0002F26F4C0661ADD44
:1029A000700615D5BBF12B0F0AD0BBF12D0F0FD13F
:1029B00004E04FF0FF3005B0BDE8F08F46F48066CC
:1029C000A16902986D1C88477F1E8346002F02DD97
:1029D000BBF1300F03D0B9F1000F2AD025E0A16977
:1029E0006D1C02987F1E46F400768847002F8346B0
:1029F00005DDBBF1780F06D0BBF1580F03D0B9F15C
:102A0000000F10D011E0B9F1000F02D0B9F1100F92
:102A10000BD1A1696D1C02987F1E26F400768847B1
:102A20008346102000E0082081464FEAE9700090BC
:102A300017E00A20F8E74346AAFB0928DDF800C0A2
:102A40007F1E03FB098046F4007605F101050AFBB1
:102A50000C0112EB0B0A029841EBEB78A169884755
:102A60008346002F06DD49465846FEF76BFE5FEAB7
:102A7000000BE0D5E16902988847B00502D46FF0F9
:102A8000010098E7F00718D1700610D5514670057F
:102A900005D50023D1EB030163EB080200E04246B9
:102AA0002068031D23600068C0E9001205E020686B
:102AB000011D21600068C0E900A828467BE72DE9D8
:102AC000FF5F4FF000089946144646469169D2E9E7
:102AD00001A7DDF838B001988847054659EA0B0090
:102AE00005D009E0A1690198761C88470546216A4E
:102AF000284688470028F5D1681C03D05FEACA70D1
:102B000005D015E04FF0FF3004B0BDE8F09F20681D
:102B1000011D2160D0F800800AE05FEACA7001D18F
:102B200008F8015BA169761C01987F1E884705465D
:102B3000002F1ADD681C18D0B9F1000F0DD0E8176E
:102B400005EBD060421120F01F0059F822102A1A1C
:102B5000012090400142E0D107E0BBF1000FDCD141
:102B60002846216A88470028D7D0E169019888471C
:102B7000BBF1000F07D1002E05DD5FEACA7002D15C
:102B8000002188F80010A068B84203DDBBF1000FF7
:102B900003D017B16FF00100B6E73046B4E72DE976
:102BA000FF4F4FF000089A461446C146464683B090
:102BB000D2E901B7CDF80080CDF80480916904987E
:102BC0008847109905465AEA010005D009E0A16935
:102BD0000498761C88470546216A284688470028BD
:102BE000F5D1681C03D05FEACB7005D02AE04FF026
:102BF000FF3007B0BDE8F08F2068011D2160D0F8DC
:102C000000801FE002A86A46E9B200F015FB411CF3
:102C100007D0801C09D04FF000095FEACB7007D0C5
:102C20000AE0E169049888473EE04FF0010904E0BA
:102C3000BDF8081028F8021B7F1EA1690498761CB5
:102C400088470546002F1ADD681C18D0BAF1000F1E
:102C50000DD0E81705EBD060421120F01F005AF8A4
:102C600022102A1A012090400142CBD107E010988F
:102C70000028C7D12846216A88470028C2D0E169C8
:102C800004988847B9F1000F0ED1109830B9002E82
:102C900004DD5FEACB7001D1A8F80000A068B8425B
:102CA00002DD109818B117B16FF00100A1E73046AE
:102CB0009FE72DE9FF4F4FF000089B46144645461D
:102CC00083B0D2E90196CDF80080CDF804809169F7
:102CD000DDF848A00498884707465BEA0A0005D05B
:102CE00009E0A16904986D1C88470746216A3846A7
:102CF00088470028F5D1781C03D05FEAC97005D059
:102D00001BE04FF0FF3007B0BDE8F08F2068011DD9
:102D10002160D0F8008010E05FEAC97007D16A46F0
:102D20004046B9B200F0A6FA411C31D08044A169F6
:102D30006D1C0498761E88470746002E14DD781C0B
:102D400012D0BBF1000007D03B46DDE9101200F0C5
:102D50000BFE0028E0D107E0BAF1000FDCD13846C5
:102D6000216A88470028D7D0E16904988847BAF1DA
:102D7000000F06D1002D04DD5FEAC97001D188F88B
:102D80000000A068B04203DDBAF1000F03D016B115
:102D90006FF00100B7E72846B5E72DE9FF5F9B46D6
:102DA000144600273D469169D2E90196DDF840A01E
:102DB0000198884780465BEA0A0005D009E0A169CE
:102DC00001986D1C88478046216A40468847002844
:102DD000F5D1B8F1FF3F03D05FEAC97005D014E028
:102DE0004FF0FF3004B0BDE8F09F2068011D216066
:102DF00007680AE05FEAC97001D127F8028BA16970
:102E00006D1C0198761E88478046002E15DDB8F1AE
:102E1000FF3F12D0BBF1000007D04346DDE90E12A0
:102E200000F0A2FD0028E5D107E0BAF1000FE1D1E2
:102E30004046216A88470028DCD0E169019888472C
:102E4000BAF1000F05D1002D03DD5FEAC97000D192
:102E50003880A068B04203DDBAF1000F03D016B18C
:102E60006FF00100BEE72846BCE72DE9F0470446B5
:102E70001E4690460D46C7684C30814611F064FEF0
:102E8000B80714D0780212D44046B8F5807F09D034
:102E9000B0F5007F06D0B8F5806F08D1012604F1A7
:102EA000240506E0701E6FF07F41884201D30124A3
:102EB00009E02561E6616560E06820F4706040EA41
:102EC0000800E0600024484611F064FE2046BDE89A
:102ED000F08700002DE9F04716468846814602F14A
:102EE0004C07384611F030FE3046FEF785FD18F8E5
:102EF000010B61280AD0722802D077283FD102E066
:102F00000125002405E00225042402E0082448F2FB
:102F1000020518F8010B2B2806D0622809D018F8F2
:102F2000010C74280AD00BE045F0030544F00204BC
:102F3000EFE745F0040544F00104EAE744F010042B
:102F40004846214611F070FE411C18D00021316125
:102F500071604FF40071F560F1617061200704D574
:102F6000304602220021FEF731FC306D40F00100B6
:102F70003065384611F00EFE3046BDE8F087002679
:102F8000F7E72DE9F04115460E460746204C20464E
:102F900011F0DAFD2A4631463846FFF79BFF054619
:102FA000204611F0F7FD2846BDE8F0812DE9F041FB
:102FB0000E468046164D284611F0C6FD154C206D74
:102FC000C10704D0410804D020F00104F7E72246ED
:102FD00012E05420FEF77DF9070017D0206D47F06E
:102FE00001010843542120653846FDF7ADFF07F184
:102FF0004C0011F0B9FD3A4631464046FFF76AFFF2
:103000000446284611F0C6FD2046CDE70024F8E727
:10301000FC0200208006022010B50446FEF7EBFEFD
:10302000D0E902121068104444F8100B50681044A4
:1030300044F80C0C9068104444F8080C8868084464
:1030400044F8040CC86808442060086908446060BB
:1030500048690844A06088690844E060C869084479
:103060002061086A084460610878207648786076B4
:103070008878A076C878E0760879207748796077F4
:103080008879A077C879E07710BD000070B5064652
:10309000484231EA00000FD02A20741C002530700D
:1030A000FEF7A9FE0346002253F82500010F000198
:1030B00009292BD957312AE0042913D004DC01292E
:1030C00008D0022904D109E008290FD0102911D015
:1030D000002070BDFEF78FFE00680EE0FEF78BFE4D
:1030E00040680AE0FEF787FE806806E0FEF783FE90
:1030F000C06802E0FEF77FFE006928B120F00300FF
:1031000050F8041C084470BD49A070BD3031521CF9
:10311000082A04F8011BC9D36D1C052DC3DB002050
:103120002070304670BD2DE9F047E1B14B091AD14E
:1031300032B113782A2B06D0BDE8F04700F02AB848
:10314000BDE8F047A2E753786BB1551C81460F46A6
:103150004FF0010800240026314615F8010B3928EC
:1031600004D8303803E00020BDE8F0875738491C08
:10317000082940EA0616F0D308FA04F0384203D0D2
:10318000FEF739FE40F82460641C052CE3DB394669
:103190004846D5E72DE9F0410C4606461546880716
:1031A0000AD511462348784418F082FB071E3CD00C
:1031B000FEF721FE7F1C4760E0070AD029461D4824
:1031C00078441A38AFF30080071E2ED0FEF713FEA6
:1031D000076060070AD5294616487844343818F045
:1031E0007DFB071E21D0FEF706FE876020070AD56B
:1031F0002946104878444E3818F086FB071E14D034
:10320000FEF7F9FDC760E0060AD52946094878446B
:103210006838AFF30080051E07D0FEF7ECFD0561AE
:1032200021463046BDE8F04130E7BDE8F0810000BE
:10323000430000000E68020070B516460C460546B5
:10324000FDF7E0FF036893F80101012804D0185D41
:1032500068B101202C8070BDD3F8030132462146AD
:1032600003F2031303442846BDE8704018474FF0AB
:10327000FF3070BD70B516460C460546FDF7C2FF1F
:10328000036893F80101012806D0FF2C0FD8185DC0
:1032900068B101202C7070BDD3F807013246214679
:1032A00003F2071303442846BDE8704018474FF067
:1032B000FF3070BD002801D011F08DBC704710B5F3
:1032C00000F0D4FCBDE81040FFF7F4BF10B500F0EB
:1032D000E5FCBDE81040FFF7EDBF000010B5012888
:1032E00005D0002103A000F0A8FC012010BD09A119
:1032F000F8E7000053494752544D454D3A204F7569
:1033000074206F662068656170206D656D6F7279DD
:10331000000000003A2048656170206D656D6F7295
:103320007920636F727275707465640010B5002146
:1033300002A000F082FC012010BD0000534947505C
:1033400056464E3A205075726520766972747561E2
:103350006C20666E2063616C6C65640001B5FDF7DE
:1033600051FD01BD2DE9F04117460E46054633B12A
:1033700007FB0354E41B2046B047A542FAD1A5F150
:103380000800BDE8F08110B500F00DF8016919B131
:1033900000220261884701E080688047FEF773FCE5
:1033A00010B5FEF770FC70B500F047F804680546EC
:1033B000A4B92020FDF78DFF040011D00949002099
:1033C0002C60C4E900010849A1602073206160619C
:1033D0000649A06109B100F07BFCE061204670BDA8
:1033E000FEF751FC00000000A133000800000000BF
:1033F0007546FDF7A7F8AE4605006946534620F02E
:103400000700854618B020B5FDF78AF8BDE82040D2
:103410004FF000064FF000074FF000084FF0000B90
:1034200021F00701AC46ACE8C009ACE8C009ACE843
:10343000C009ACE8C0098D46704710B5FDF782F8A9
:103440003C3010BD2DE9F0411F46044603260168BB
:10345000072A01F4006004DB08B116A505E016A5F3
:1034600003E008B115A500E015A521F010002060CB
:10347000A069C01EA0610FB1401EA0612046FDF7EB
:1034800049F94FB1D4E9012138469047206A401CE0
:103490002062C01C206206E0206AFAE7D4E901211C
:1034A00015F8010B9047761EF8D22046FDF748F933
:1034B000BDE8F0814E414E006E616E00494E4600FF
:1034C000696E66002DE9FF4F064689B00878FF282F
:1034D00006D0491C2D2805D000244FF0000908E033
:1034E00000200CE00124F8E709EB8903491C00EBFC
:1034F00043090878FF28F7D114B1C9F100008146CB
:10350000107800252C46AA4629462D2801D02B28C4
:1035100004D1521C2D2813D0002082468B461078EF
:10352000FF280FD04FF0000C0A21521CA5FB017898
:1035300004FB018105FB0C11C5194BEB0104EEE7FF
:103540000120EAE7002108464FF00000BAF1000F21
:1035500002D000EB80004008C0F38158B8F1010FA1
:1035600001DD4FF0FF380C9809EB000755EA040025
:1035700009D04FF0020917F5FA7F0BDA4FEACA704B
:10358000C6E900B012E04FEACA70C6E900B00DB05B
:10359000BDE8F08FB7F5FA7F0DDDF0487844D0E94B
:1035A0000010C6E9001040EACA707060FEF728FCFF
:1035B000C0F80090EBE7391E02DAC8F1000200E023
:1035C000424600DA794206A800F0DEF906AB93E83D
:1035D000070003AB83E8070044F23E005BEA040106
:1035E0000090584604D144F21E012C465D460091DD
:1035F000210C0904014306D10099240444EA15442E
:103600002D041039009104F07F41014306D1009947
:10361000240244EA15642D020839009104F0704137
:10362000014306D10099240144EA15742D01091FB4
:10363000009104F04041014306D10099A40044EAFE
:103640009574AD00891E009104F00041084304D137
:1036500000986D196441401E009042466846002F54
:10366000CDE9014503A902DD01F01DF901E001F0FA
:10367000F2F8BAF1000F04460D4601D084F0004480
:1036800040F2FF7724F00040284303D0C4F30A50EF
:10369000B84212D1FEF7B4FBC0F80090C4F30A5050
:1036A000B8420AD1AE487844D0E90010C6E900100B
:1036B00004F000410843706069E7C6E9005466E71A
:1036C0002DE9FF4F1F464FF0000A4FF0FF384546E7
:1036D00091B0D7E90146CDF83CA0FEF78CFBC0685D
:1036E0000168405C1090B96912986D1C8847396A6E
:1036F000814688470028F6D1B9F1FF3F0AD0002E55
:1037000024F4D06411DDB9F12B0F08D0B9F12D0FDD
:103710000BD102E0404615B03AE744F48064B96941
:1037200012986D1C8847761E8146600504A901D554
:103730002D2000E02B20002E01F1010B0DF13008AF
:103740008DF810003FDDB9F1690F08D0B9F1490FCC
:1037500005D0B9F16E0F02D0B9F14E0F1CD13B4626
:1037600001A8009580E85002DDE912126FF0020016
:1037700024F01CF9C11CCED10EE0B96912986D1C61
:10378000884781461398761E44F4007405600F98AC
:10379000401C002E0F9016DDB9F1300FEDD0B9F1BD
:1037A000780F02D0B9F1580F0DD10F9801280AD126
:1037B0003B46CDE90054DDE91212001F029624F0C9
:1037C000F3F8C11CA7D1109989453ED144F080047B
:1037D00006E01399681CAAF1010A44F40074086019
:1037E000B9696D1C1298761E884730288146F0D042
:1037F0002BE01099894505D1200603D4761E44F0AC
:10380000800418E0484611F098F908B3761E0DF1CF
:1038100023018B4544F4007408D2A9F130000BF861
:10382000010B200607D5AAF1010003E0200602D40F
:103830000AF101008246A00502D51399681C0860B0
:10384000B96912986D1C88478146002ED1DC53E07F
:10385000002E51DDB9F1650F02D0B9F1450F4BD102
:10386000A00549D5B9696D1C1298761E24F44074E0
:103870008847002E81460CDD2B2804D0B9F12D0F8E
:1038800007D144F48074B96912986D1C8847761E7C
:103890008146E00501D52D2100E02B2108F8011B10
:1038A000CDF8008021E0761E0DF13901884544F401
:1038B00000740CD2A9F1300010F0FF0088F800006D
:1038C00002D10099884509D908F1010806E0E00510
:1038D00001D5244801E042F20F708246B96912987E
:1038E0006D1C8847814613980560002E04DD48460C
:1038F00011F023F90028D6D1F96912988847FF20E2
:1039000053468BF8000088F8000000200A900B90C6
:1039100004AA0CA90AA8FFF7D5FDA00502D46FF0F0
:103920000100F8E614F0240F0AD0E00714D138683B
:10393000DDE90A12031D3B600068C0E900120BE0DC
:103940000AA9684610F084FDE00705D13868009A9E
:10395000011D3960006802602846DCE6F46202005E
:10396000EA610200F1D8FFFF10B508E030F8024B21
:103970009C4204D10AB1002010BD012010BD491E97
:10398000F4D2104610BD00002DE9F04781461646DE
:103990008AB0334878440DC88DE80D00304878442B
:1039A000801C03AC0DC884E80D0041F69B30084430
:1039B000372190FBF1F290FBF1F5A5F1800501FBB9
:1039C00012041B3C02D56442012000E00020DFF815
:1039D00090A080460027FA44AAF1BE0A0DE0E00755
:1039E00009D03246684607EB47010AEB810100F037
:1039F00046FF8DE8070064107F1C002CEFD1184FA4
:103A00007F44AC3F18E0E80714D007EB04100DF139
:103A1000180A90E80E008AE80E00C068F04201D152
:103A200098190890324606A903A800F028FF03ABB6
:103A300083E807006D10641C002DE4D1324669460E
:103A4000B8F1000F03A802D000F0F1FE01E000F091
:103A500016FFC9E90001C9F808200AB0BDE8F087DF
:103A6000BC4902002DE9F04705460C46C86820F421
:103A7000201040F48000C860800602D50846FDF79B
:103A80009AFFE06841F282014FF0FF3901400229BC
:103A900003D02046FDF738FFB5E000F42041B1F532
:103AA000004F0FD1C00306D56168E06A884200D894
:103AB0000846606006E02069E0626060606911F0BD
:103AC0008EF8A061A0680022EEB200280DDAE1684D
:103AD0008B050AD4C043A06041F490302260E060BE
:103AE0006068411C61600670A5E0E0689046226055
:103AF00040F40050E060206968BB606911F081F813
:103B0000012704F12405A0B1A08910F4407F08D05A
:103B1000E069FDF7DEFB206118B1E06840F4006069
:103B200016E0E7612561E06820F4407040F48060B1
:103B30000EE0E069FDF7CDFB00282061F1D0E068E0
:103B400040F4006010F4407FE06002D140F48070E7
:103B5000E06020696060E06825696FF0010AC105D6
:103B60001FD56168E06A884200D80846411B04D02E
:103B700022462846FDF7D2FEF0BBE068010203D5DD
:103B8000E562C4E9015854E0691CE1626160E169E1
:103B900040F48030491EC4E9021030462E70BDE862
:103BA000F087010202D500F480320AE06068411C0F
:103BB00061600670E0680A2E40F48030E06006D054
:103BC0000022E16A6068814203D90B4602E00122CB
:103BD000F7E70346A7895B1B7F0503D4E7699F428C
:103BE00000DDE2B1814200D80146E5620F1AC4E966
:103BF0000158002B09DD00E005E022461946284661
:103C0000FDF78CFE08B14846C9E747B1A069E562F7
:103C10006560C01BA061E06840F01000E060E068F3
:103C2000000208D56168A069E562491B0844656027
:103C3000A0615046B3E73046B1E770B505460C4683
:103C40000A2000E06D1C11F065F835B128780028D5
:103C5000F8D102E0641C11F05DF814B1207800285E
:103C6000F8D1BDE870400A2011F054B810B5002119
:103C700002A0FFF7E2FF012010BD000053494741B9
:103C80004252543A2041626E6F726D616C207465CD
:103C9000726D696E6174696F6E00000010B5014647
:103CA00002A0FFF7CAFF012010BD00005349475290
:103CB000545245443A2052656469726563743A20EF
:103CC00063616E2774206F70656E3A2000000000FB
:103CD00010B58820FDF7FDFA002801D00021017001
:103CE00010BD802902D808B1017809B100207047C1
:103CF000012100F8081B704718B100F10802914239
:103D000001D0002070470021017070472DE9F0417B
:103D100014460D46074601F14C06304610F014FFDC
:103D2000094B7B44224629463846FDF7EAFB044608
:103D3000287B000601D54FF0FF34304610F02AFFF3
:103D40002046BDE8F0810000852701002DE9F05FE5
:103D50000E4680461C46924602FB06F503F14C00D7
:103D6000834610F0F1FE16B3A768002041E0002F53
:103D700041DCE069A8421CDAB9F1000F19D02246F3
:103D800029464046FDF7CAFD08B1A76029E0E06872
:103D900010F4C06F01D0002008E022696168891A20
:103DA000E269511AC003A16001D44842A0605446A0
:103DB00018E0A84203DAE06840F40000E060214621
:103DC00098F80000FFF74EFEE16821F40001E16081
:103DD000411C06D0A76800280ADB6D1E08F1010807
:103DE00018E00024584610F0D5FE2046BDE8F09FAC
:103DF000012081460EE0AF423E4600DD2E464146A0
:103E000032466068FCF7B9FF6068BF1BAD1B3044E9
:103E1000B0446060002DAADCA760C8E710B5044973
:103E200000F03CFABDE810400148FCF7D8BE0000A5
:103E3000280702202DE9F04116461F460C46851B37
:103E400002E02846B847AD1B641EFAD2BDE8F081F7
:103E50002DE9FF4F1F464FF03C0987B04FF000425D
:103E6000DDE9141001F10108DDF858A002EA405024
:103E70000390002004908346054604460590B969E6
:103E8000461E08988847AAF1010A0290BAF1000F6D
:103E900037DD02982E2815D01021FDF753FC00289D
:103EA0002ADB4FF0010B0499014316D0B9F1000F42
:103EB0000BDB4A46C11700F00CFA05430C43A9F18D
:103EC000040905E00120059007E008B145F001056F
:103ED00001200490059800B9361DB969089808F1C9
:103EE00001088847BBF1000FAAF1010A0290CDD06A
:103EF0000999C1F80080C9E70298702808D05028B5
:103F000006D0F96908988847BBF1000F14D04FE03C
:103F1000002002900120BBF1000F049009D0B96984
:103F2000089808F101088847AAF10109B9F1000FC2
:103F300007DCF969089888476FF001000BB0BDE80D
:103F4000F08F2B2804D02D280CD14FF0FF30049097
:103F5000B969089808F101088847A9F10109B9F180
:103F6000000FE6DD411CE4D00A21FDF7EBFB002841
:103F7000DFDB029908F1010801EB810100EB410050
:103F80000290B969089888470A21FDF7DBFB099A76
:103F9000A9F10109B9F1000FC2F8008001DD002884
:103FA000E7DAF969089888470499029800FB0166E6
:103FB00055EA040004D004F04041090002D006E0B4
:103FC000039898E0A40044EA9574AD00B61E04F08E
:103FD0000041080002D16D196441761E159810F059
:103FE000240F03D04FF00B095C4803E04FF0280981
:103FF0006FF07D008246564507DAAAEB0601894438
:10400000B9F1410F01DD4FF0410901200021A9F173
:10401000010200F05EF9024628400B4621400843A9
:1040200001D0012100E00021501E029143F1FF3137
:1040300028402140084301D0012000E000200299DF
:10404000834651EA0B014FD0002108464FF0000093
:10405000039900F4400039B100EB80004FF44001B7
:1040600000EBD07001EA60008015012802DD4FF0FE
:10407000FF3000E013D0401C36D0029860B3BBF193
:10408000000F0CD14A460120002100F022F92840FF
:104090002140084301D0012000E00020E0B10120D0
:1040A0004A46002100F015F9034640190A466141CD
:1040B0002D1A8C4111D3B9F1400F09DD159810F07C
:1040C000240F02D0AAF1340603E0AAF1170600E09B
:1040D000761C00254FF0004406E05B1E42F1FF32E3
:1040E00020EA030521EA0204CAF10100B04206DA1F
:1040F0001B49039808430190002000900EE0039AAA
:10410000C4F3D321E80A0A43164940EA44500A435B
:104110003146CDE90002684610F0CCFC159810F04D
:10412000240F0BD01598C00715D13868DDE90012AF
:10413000031D3B600068C0E900120CE002A869465C
:1041400010F086F91598C00705D13868029A011D4C
:104150003960006802604046F0E6000002FCFFFFA4
:104160000000F07F0000F03F2DE9FF4F92461D4612
:1041700085B04FF00041DDE9124BDDE914727F1E7E
:1041800001EA4B50414940F0FF4940EA0108002153
:1041900022F020004928049102D04E2828D04CE07B
:1041A0003BA0012607C88DE80700A9690698641C92
:1041B00088477F1E014606D41DF8060018B121F07D
:1041C000200181420BD0E96906988847032E34D03C
:1041D000082E32D06FF0010009B0BDE8F08F761CD8
:1041E000032E01D0082EE0D1601CCAF80000DCE7E5
:1041F000A9690698641C88477F1E2AD420F02000F5
:10420000412826D1A9690698641C88477F1E20D4BE
:1042100020F020004E281CD1A9690698641C88470C
:104220007F1E48F4002849F48009CAF8004001D4F0
:10423000282806D0E969069888475FEACB7012D033
:1042400022E0A9690698641C88477F1E01D40028D3
:1042500003DAE96906988847BCE72928F1D1641C8C
:10426000CAF80040E9E71BF0240F07D0286804993A
:10427000031D2B600068C0E9001805E02868021DD6
:104280002A600068C0F800902046A5E70000F07F93
:10429000494E46494E4954590000000070B50E463B
:1042A000044601F14C05284610F04EFC04E031466E
:1042B00012F0FBF8401C09D014F8010B0028F6D1CD
:1042C0000024284610F066FC204670BD4FF0FF34F5
:1042D000F7E7B2F120030AD5C2F1200301FA02F197
:1042E00020FA03F300FA02F041EA0301704700FAF2
:1042F00003F14FF0000070475FEA400C08BF91F0F7
:10430000000F4FEA8C234FEAC12243EA51514FEA92
:104310001C5018BF00F5F0404FEA300018BF41F0C4
:1043200000415FEA6C5C00F02980BCF1FF3F08BFF0
:1043300040F080407047130C06BF12044FF0100C81
:104340004FF0000C130E04BF12020CF1080C130FF7
:1043500004BF12010CF1040C930F04BF92000CF186
:10436000020CD30F04BF52000CF1010C11464FF0A8
:104370000002A0F11F00A0EB0C00704711F0004FED
:1043800008BF704731F000413FF4D5AF0B0C06BFBA
:1043900009044FF0100C4FF0000C0B0E04BF090283
:1043A0000CF1080C0B0F04BF09010CF1040C8B0F6E
:1043B00004BF89000CF1020CCB0F04BF49000CF1C3
:1043C000010CCCF12003A0EB0C0022FA03F302FA5B
:1043D0000CF241EA030100F10100704720F07F4C2C
:1043E00080EA030023F07F47ACEB070303F57C531F
:1043F00000F0004003F1FF032DE980494FEA154B1F
:1044000009B44FEA144325EA0B4E24EA03480FF29D
:10441000042606EB132749083E785FEA320203FBC5
:104420000667C7F5000707FB06F64FEA54374FEA61
:10443000D64606F1020607FB066CCCF1005C4FEA9B
:104440001C472CEA074C07FB06F40CFB06F504EBB3
:1044500015464FEA961634BF00204FF000404FEA51
:10446000D13706FB07FC4FEA1C4C0CFB0BF7D21BA9
:1044700003FB0CF761EB07010CFB0EF7B0EB0740F9
:1044800072EB17420CFB08F734BFA2EB0742B2EB0A
:10449000074261EB17414FEA0C444FEA910706FBD4
:1044A00007FC4FEA1C4C0CFB0BF7B0EBC74072EB60
:1044B000573203FB0CF734BFA2EBC742B2EBC74243
:1044C00061EB57310CFB0EF7B0EBC70072EB577284
:1044D0000CFB08F734BFA2EBC702B2EBC70261EBDB
:1044E0005771039F4FEA816141EA921104EBCC04BA
:1044F0004FEAD1374FEA826206FB07FC42EA90128C
:104500004FEA80604FEA1C4C0CFB0BF7D21B03FBFD
:104510000CF761EB07010CFB0EF7B0EB074072EBF9
:1045200017420CFB08F734BFA2EB0742B2EB07427D
:1045300061EB17414FEA8C554FEA910704EB9C243D
:1045400006FB07FC4FEA1C4C0CFB0BF7B0EBC7401B
:1045500072EB573203FB0CF734BFA2EBC742B2EB4E
:10456000C74261EB57310CFB0EF7B0EBC70072EBA3
:1045700057720CFB08F734BFA2EBC702B2EBC702BD
:1045800061EB577115EB4C254FEA816141EA9211BD
:104590004FEA82624FEAD13742EA901206FB07FCEB
:1045A00044F100044FEA80604FEA1C4C0CFB0BF70F
:1045B000D21B03FB0CF761EB07010CFB0EF7B0EB12
:1045C000074072EB17420CFB08F734BFA2EB07421F
:1045D000B2EB074261EB174115EB1C154FEA813135
:1045E00041EA92414FEA823242EA90424FEA8030F9
:1045F0004FEA0C7644F1000448EA03434EEA0B48C4
:104600004FF0000EB2EB080C71EB030724BF6246BB
:1046100039464EEB0E0E4FF0000B00185241494147
:104620004BEB0B0BB2EB080C71EB03077BF1000BB0
:1046300024BF624639464EEB0E0E4FF0000B0018B9
:10464000524149414BEB0B0BB2EB080C71EB0307EA
:104650007BF1000B24BF624639464EEB0E0E51EA49
:10466000020718BF46F0010616EB0E7655F1000260
:1046700054F1000103D5BDE88901BDE80088BDE81B
:104680008901BDE80048B619524141EB0101A3F18F
:104690000103704780807F7E7D7C7B7A7978777696
:1046A00076757473727171706F6E6E6D6C6C6B6A0F
:1046B0006A696868676666656464636362616160AD
:1046C000605F5F5E5E5D5D5C5C5B5B5A5A5959582A
:1046D0005857575656555555545453535252525194
:1046E000515050504F4F4F4E4E4D4D4D4C4C4C4BEA
:1046F0004B4B4A4A4A494949484848474747474631
:10470000464645454544444444434343434242426C
:104710004241414146EA0646A3F570534FEA164628
:1047200046EA42564FEAD22242EA415210B54FEAD7
:10473000D121A3F1010300F017F820F0004000F1AF
:10474000010C00F0004701EB00501146BCF5006F72
:1047500040EA070000D210BD02484FF0000140EAD5
:10476000070010BD0000F07F002B26D4770021D079
:104770001CB54FEA370703B44FF010004FF010019B
:104780004FF000000FBCBDE810400BF1010BBBF176
:10479000010F08BF5FEA170722BF12F1010211F1F2
:1047A00001014FF0004143F1000300F0004043EAF3
:1047B00000007047F9D35708DAE746EA064613F1D6
:1047C000400F4FEA16461FDD13F1200FDFBF1643DF
:1047D0000A46002120335B42C8D0C3F1200746EAD5
:1047E000064602FA07F74FEA164646EA0706C3F1FD
:1047F000200722FA03F201FA07F721FA03F14FF03A
:10480000000342EA0702B1E746EA020646EA064624
:104810004FEA164646EA0106BCBF46EA0646360C93
:104820004FF000034FF000024FF000019EE72DE92A
:10483000C048934630B491E8380007C831EA400CCC
:1048400048BF34EA430C03D5FFF7C8FDFFF78CFFE0
:10485000F0BCBDE800882DE9C048934630B491E82B
:10486000380007C831EA400C48BF34EA430C03D58E
:10487000FFF7B4FDFFF74EFFF0BCBDE800882DE95F
:10488000C048934630B491E8380007C810F0804F14
:1048900008BF13F0804F03D100F019F8FFF764FF51
:1048A000F0BCBDE800882DE9C048934630B491E8DB
:1048B000380007C810F0804F08BF13F0804F03D1B5
:1048C00000F005F8FFF726FFF0BCBDE8008820F0F7
:1048D0007F4780EA030023F07F4C07EB0C03A3F52E
:1048E0007C5300F00040A3F1FE0392F0000F00F0B3
:1048F000B38095F0000F00F077802DE901494FEA71
:1049000011404FEA144621EA004800FB06FC24EA65
:10491000064708FB06F607FB08F800FB07F718EB4D
:1049200006484CEB164C4FEA124B18EB07484FEA7F
:1049300015464CEB174022EA0B4E0BFB06FC25EA12
:1049400006470EFB06F607FB0EFE0BFB07F71EEBFA
:10495000064E4CEB164C4FF000061EEB074E4CEB90
:10496000174B18EB0B0840F1000018EB0E0B58EB3F
:10497000000840F100008F1A4FF000013CBFC9430E
:10498000661B14BFB5EB040C00213CBFC943F61BEA
:104990004FEA17444EEA8E0E27EA04454FEA1C47B9
:1049A00004FB07622CEA074C05FB07F70CFB05F636
:1049B00004FB0CFC16EB074642EB174216EB0C46C9
:1049C00042EB1C421BEB060658EB0202414146EA51
:1049D0009E0601D5BDE80189B619524141EB01019E
:1049E000A3F10103BDE801894FEA14454FEA1147DD
:1049F00024EA054621EA074C05FB07F406FB07F706
:104A00000CFB06F105FB0CFC11EB074144EB1744D2
:104A10004FEA124711EB0C4144EB1C4422EA074CCD
:104A200005FB07F206FB07F70CFB06F605FB0CFC83
:104A300016EB074642EB174216EB0C4642EB1C45C1
:104A40006A1854F1000148BF7047B619524141EB52
:104A50000101A3F10103704795F0000F37D04FEA31
:104A600011424FEA144721EA024624EA074C02FBAE
:104A700007F106FB07F70CFB06F402FB0CFC14EB3A
:104A8000074441EB17414FEA154714EB0C4441EB47
:104A90001C4125EA074C02FB07F506FB07F70CFB58
:104AA00006F602FB0CFC16EB074645EB174516EB2A
:104AB0000C4645EB1C42121951F1000148BF7047EA
:104AC000B619524141EB0101A3F1010370474FEACE
:104AD00014454FEA114724EA054621EA074C05FB35
:104AE00007F106FB07F70CFB06F24FF0000605FB8B
:104AF0000CFC12EB074241EB174112EB0C4251EB5D
:104B00001C4148BF7047921841EB0101A3F101031A
:104B1000704700000000000038B504466846AFF357
:104B200000800146204621F0B7FB38BD10B5044691
:104B30002146012000F060FB10BD000010B50248C6
:104B400001F076FA10BD0000240A0020FEB50446EC
:104B50000D460F490868002112F074FF8DE8070028
:104B6000009820280AD1019E3146012000F000FB68
:104B700007490868314612F057FF03E00549086805
:104B800013F006F82A462146012000F06DFBFEBD19
:104B9000180100202001002070B504460D460120B8
:104BA000A0732A46214600F087FB70BDF8B5044685
:104BB0000D4616461F4633462A46214601200097D9
:104BC00000F088F9F8BD000010B5024801F030FA95
:104BD00010BD0000240A002070B504460D460020D8
:104BE000A0732A462146012000F066FB70BD70B517
:104BF00004460D462A462146012000F0A9FB70BD5F
:104C000010B5012000F062FA10BD000010B5024896
:104C100001F00EFA10BD0000240A002030B5044651
:104C20000D462A462146012000F09EFA30BD0000C4
:104C300008B502480068009008BD0000B47B020877
:104C400070B504460D46206800F5D87000EB0510DD
:104C5000006800F00400616B8860606B806860B978
:104C6000206800F5D87000EB0510006840F2FF7175
:104C700001EA5050616B08600BE0206800F5D870C5
:104C800000EB051000686FF0604101EAD000616B35
:104C90004860206800F5D87000EB0510006800F04F
:104CA0000200616BC860206800F5D87000EB051049
:104CB000406800F00F00616B0861206800F5D87053
:104CC00000EB05104068C0F30720616BC8612068E5
:104CD00000F5D87000EB05108068616B08752068DE
:104CE00000F5D87000EB05108068010A606B417513
:104CF000206800F5D87000EB05108068010C606B2F
:104D00008175206800F5D87000EB05108068000EF2
:104D1000616BC875206800F5D87000EB0510C0689D
:104D2000C1B2606B0176206800F5D87000EB051009
:104D3000C068010A606B4176206800F5D87000EB0E
:104D40000510C068010C606B8176206800F5D87092
:104D500000EB0510C068000E616BC87665B920686D
:104D6000C06840F020002168C8602068406920F0D9
:104D70000200216848610BE02068006940F02000D3
:104D8000216808612068406920F0100021684861AE
:104D900094F8380022281DD12068406920F48070E2
:104DA000216848612068406920F4007021684861EA
:104DB0002068406920F4806021684861206840696B
:104DC00020F40060216848612068406920F40040B8
:104DD0002168486194F83800322803D1122084F801
:104DE000380002E0012084F83800204601F0D6FBAC
:104DF000002070BD10B504462068406920F0010015
:104E00002168486194F8380012281DD12068406953
:104E100020F48070216848612068406920F40070A7
:104E2000216848612068406920F4806021684861F9
:104E30002068406920F4006021684861206840696A
:104E400020F400402168486194F83800322803D1EA
:104E5000222084F8380002E0012084F8380020463F
:104E600001F01AFD002010BD70B506460D46012E5A
:104E700003D1144C1448206001E0092070BD00BF2C
:104E80000021A1600121E16200216162E1612162F2
:104E9000A161A1620D48854204D80D48B0FBF5F030
:104EA000606001E00320E9E74FF4E0212161002187
:104EB0006161E160204601F0A9F908B10B20DDE74E
:104EC0000020DBE7240A00200064004040420F007D
:104ED00020AA44002DE9F0438BB0074689461546C9
:104EE0001C46129E4FF000080120099000200790F8
:104EF00001200890002005902B4800680A90012F9F
:104F00004DD10020069046E0069988B2214600F077
:104F10004FF88046B8F1FF0F34D00A9906988842BE
:104F200004D10A98401C20490A90086004F001004E
:104F300050B96801019004F00200029070010390E2
:104F400004F00200049015E0680B0190C5F30C001A
:104F5000042101EBC00004F0020108430290700B31
:104F60000390C6F30C00042101EBC00004F0020121
:104F70000843049001A90D4800F042FF00200BB047
:104F8000BDE8F0830A990698884201D30520F6E728
:104F90000698401C069006981B28B5D300E000BF79
:104FA00000BF0520EBE7000014010020240A0020C8
:104FB00002464348006801239340184008B9002086
:104FC00070473F481038006801239340184000287C
:104FD0004CD101F00400B8B93948183800680123F1
:104FE0009340184080B93648243050F8320008B950
:104FF0000020E5E73248243000EBC200406808B9E1
:105000000120DDE7FF20DBE701F00400002854D099
:105010002B4818380368012090400340002B4CD0E7
:105020002748243050F8320080B208B90020C7E782
:105030002348243050F832006FF30F0008B90120E4
:10504000BEE71F48243000EBC200406880B208B9B8
:105050000220B5E71A48243000EBC20040686FF325
:105060000F0008B90320ABE7FF20A9E701F0040017
:1050700040B91348183803680120904003400BB929
:10508000FF209DE701F00400B8B10D481838006812
:1050900001239340184080B10948243050F8320071
:1050A00008B900208CE70648243000EBC2004068B5
:1050B00008B9012084E7FF2082E7FF2080E7000095
:1050C0001C660040024601207047000070B505468E
:1050D000012D01D10D4C01E0092070BD00BF94F8F5
:1050E0003800042801D1012000E0002094F8381095
:1050F00009B9012100E00021084308B10B20ECE7C9
:105100000021204601F0CAF90020E6E7240A002029
:105110002DE9F0410446611E114A52F82100002198
:1051200012F042FD0746002F17DD012C01D10D4E74
:1051300002E00920BDE8F08100BF304600F074FFB6
:105140000546012D01D0222D01D10020F2E7611E7C
:10515000034A52F8210012F01BFD0420EAE7000088
:1051600020010020240A002003460120704700008F
:105170002DE9F04107460D46012F01D11D4C02E0FB
:105180000920BDE8F08100BF287B216B0861002663
:1051900006E0281D815D206B14308155701CC6B25D
:1051A000287BB042F5DCA87B012801D1022000E079
:1051B0000020216BC860687B012808D10420216B86
:1051C0008860286820F06040216B486007E000207C
:1051D000216B88602888C0F30A00216B086002E018
:1051E000052012F0A5FB204601F020FA0028F7D197
:1051F00000BFC6E7240A002070B505460E466C1EA7
:105200001248005DE0B9012010490855012D15D163
:1052100001210F4812F098FC0E4941F824000021AA
:105220000D4812F0E9FB0D4941F8240000210C481B
:1052300012F0E2FB0B4941F8240000E000BF00BF80
:1052400031462846FFF710FE70BD00003C010020EB
:10525000E07B020820010020E47B02081801002006
:10526000F07B02081C0100202DE9FE4305460E4696
:105270001746A5F101080F4951F82800394612F0E8
:10528000E1FB8DE807000098202802D00820BDE847
:10529000FE83019C94E80F0086E80F00054951F851
:1052A0002800214612F0C0FB08B10720EFE70020DC
:1052B000EDE700001C0100202DE9FE4306460F46E5
:1052C0009046751E3046FFF723FF20B93946304619
:1052D000FFF74EFF35E01C4951F82500414612F01A
:1052E0007BFB044614B90820BDE8FE8397E80F0055
:1052F00084E80F00144951F82500214612F0ADFB57
:105300003046FFF705FFE0B90F4951F825000021AD
:1053100012F098FB8DE807000098202806D00B4972
:1053200051F8250012F034FC0020DDE7019C06490D
:1053300051F82500214612F077FB39463046FFF739
:1053400017FF0020D0E700001801002020010020F6
:105350002DE9F04106460F461446254600BF30466B
:10536000FFF7D6FE68B939463046FFF7ABFE8046F8
:10537000711E0A4A52F8210012F00AFC4046BDE8AC
:10538000F0814FF6FF70844200D16D1C6D1E01202C
:1053900012F0CEFA002DE2DA0820F0E7200100201A
:1053A00001B501226946024801F077FA08BD000004
:1053B0000C00002010B500221146024801F08EFAC0
:1053C00010BD00000C00002070B50546072D7DD2F1
:1053D000DFE805F08D045A6C808D8A00474800682C
:1053E00020F4B84201F0030010B1012806D102E018
:1053F00042F4006205E042F4804202E06FF00300F4
:1054000070BD00BF01F0040020B1042803D142F4B4
:10541000006203E002E04FF0FF30F1E700BF01F06F
:10542000100008B142F480523548806920F00873BA
:1054300001F0200018B142F4806243F0007301F0E3
:10544000400028B143F4001301202E4EF07102E019
:1054500000202C4EF0712A48836128480260406881
:1054600020F0310401F0800008B944F0200401F478
:10547000807008B144F0100401F4007008B144F0E9
:1054800001041E48446035E01C48006820F0080212
:105490001B48806920F4005319B142F0080243F41C
:1054A0000053164802601648836123E013480068E1
:1054B00020F004021248806920F0020319B142F082
:1054C000040243F002030D48026000E00FE00C48C4
:1054D00083610FE001F0020028B10948806940F4BF
:1054E0008010074EB06105E00448C16102E06FF032
:1054F000030085E700BF002082E700000080024033
:1055000000900240687E012002464FF0FF30704755
:1055100010B50C2005F0AEF8014802F013FA10BDEA
:1055200094A4012010B50E2005F0A4F8014802F063
:1055300009FA10BD44A4012010B53A2005F09AF8EC
:10554000014802F0FFF910BDBCA3012010B54620B0
:1055500005F090F8014802F0F5F910BD6CA30120A8
:1055600030B50468246824F4802405682C6004683D
:1055700063608468402C04D10468A2600468E16020
:1055800003E00468A1600468E26030BD70B50024E7
:1055900010484569104828400E49486105F001004F
:1055A00008B144F0020405F0400008B144F00104E1
:1055B0000A48866B06F0080018B10848C06A44F033
:1055C000040434B10648006818B105480168204653
:1055D000884770BD009002404100010000800240F9
:1055E000687E012008B55E4988420DD100BF5D4943
:1055F000096841F001015B4A11601146096801F038
:105600000101009100BFA9E0574988420DD100BFB8
:105610005449096841F00201524A11601146096873
:1056200001F00201009100BF98E0504988420DD17D
:1056300000BF4C49096841F004014A4A1160114613
:10564000096801F00401009100BF87E048498842E1
:105650000DD100BF4349096841F00801414A11607A
:105660001146096801F00801009100BF76E0414948
:1056700088420DD100BF3B49096841F01001394A09
:1056800011601146096801F01001009100BF65E04A
:10569000394988420DD100BF3249096841F02001E3
:1056A000304A11601146096801F02001009100BFE5
:1056B00054E0324988420DD100BF2A49096841F0BF
:1056C0004001284A11601146096801F0400100912B
:1056D00000BF43E02A4988420DD100BF2149096833
:1056E00041F080011F4A11601146096801F08001F4
:1056F000009100BF32E0234988420DD100BF194913
:10570000096841F48071174A11601146096801F473
:105710008071009100BF21E01B4988420DD100BF7C
:105720001049096841F400710E4A11601146096878
:1057300001F40071009100BF10E0144988420DD1BE
:1057400000BF0849096841F48061064A11601146AA
:10575000096801F48061009100BF00BF08BD00002E
:1057600000000240303802400004024000080240BD
:10577000000C0240001002400014024000180240D9
:10578000001C024000200240002402400028024089
:1057900008B54D4988420DD100BF4C49096841F018
:1057A00001014A4A11601146096801F001010091A6
:1057B00000BF00BF464988420DD100BF4349096878
:1057C00041F00201414A11601146096801F00201ED
:1057D000009100BF00BF3F4988420DD100BF3B4947
:1057E000096841F00401394A11601146096801F065
:1057F0000401009100BF00BF374988420DD100BFAE
:105800003249096841F00801304A116011460968BF
:1058100001F00801009100BF00BF304988420DD15E
:1058200000BF2A49096841F01001284A1160114659
:10583000096801F01001009100BF00BF28498842AB
:105840000DD100BF2149096841F020011F4A1160B4
:105850001146096801F02001009100BF00BF2149F5
:1058600088420DD100BF1949096841F04001174A2B
:1058700011601146096801F04001009100BF00BFAE
:10588000194988420DD100BF1049096841F08001D3
:105890000E4A11601146096801F08001009100BFB5
:1058A00000BF124988420DD100BF0849096841F480
:1058B0008071064A11601146096801F480710091F7
:1058C00000BF00BF08BD00000000024030380240A9
:1058D0000004024000080240000C02400010024098
:1058E0000014024000180240001C02400020024048
:1058F00010B586B00446142208496846FBF7C8FA7A
:10590000074850F82400029004F06EFC05A9684690
:1059100004F0BAFB04F012FC06B010BD187A0208BD
:10592000087A020808B56946014804F0ADFB08BDD5
:10593000F479020810B5002201B909E0012901D16A
:105940000A0205E0022901D10A0201E04FF4407287
:105950000B2800D9001D114B1B6823F440730F4C1A
:10596000236023461B681343236023461B6823F0F0
:10597000F803236023461B68F82494FAA4F4B4FACD
:1059800084F400FA04F444F002042343034C23603B
:1059900023461B6843F48033236010BD103C024053
:1059A00010B502460020144B1B6823F44073124CC0
:1059B000236023461B6803432360032906D1234643
:1059C0001B68E41323430C4C23600EE0012906D12D
:1059D000094B1B6843F00403074C236005E0064BAA
:1059E0001B6843F40043044C2360034B1B6843F4DF
:1059F0008033014C236010BD103C0240074A1268FE
:105A000022F44072054B1A601A4612681A601A4650
:105A1000126842F001021A6001707047103C0240A7
:105A200010B50949096821F44071074C21602146ED
:105A3000096841F4407121602146096841F0010183
:105A400021600260436010BD103C0240084A1268A9
:105A500022F44072064B1A601A46126842F48072B1
:105A60001A601A46126842F001021A6001807047FB
:105A7000103C0240084A126822F44072064B1A6039
:105A80001A46126842F400721A601A46126842F00E
:105A900001021A6001607047103C02402148006812
:105AA00000F0100028B12048C06940F010001E49E5
:105AB000C8611C48006800F0200028B11A48C0697D
:105AC00040F008001849C8611648006800F040001E
:105AD00028B11548C06940F004001349C861114855
