:020000040000FA
:10000000C80B0010A5010000AD010000AF01000009
:1000100000000000000000000000000000000000E0
:10002000000000000000000000000000B10100001E
:100030000000000000000000B3010000B501000056
:10004000B7010000B7010000B7010000B7010000D0
:10005000B7010000B7010000B7010000B7010000C0
:10006000B7010000B7010000B7010000B7010000B0
:10007000B70100009D0A0000B7010000B7010000B1
:10008000B7010000B7010000390E0000B701000001
:10009000B7010000290F0000B7010000B701000000
:1000A000B7010000B7010000B7010000B701000070
:1000B000B7010000B7010000B7010000B701000060
:1000C00000F002F800F03EF80CA030C80838241800
:1000D0002D18A246671EAB4654465D46AC4201D180
:1000E00000F030F87E460F3E0FCCB6460126334274
:1000F00000D0FB1AA246AB4633431847141B00003E
:10010000341B0000103A02D378C878C1FAD85207DD
:1001100001D330C830C101D504680C6070470000BD
:100120000023002400250026103A01D378C1FBD813
:10013000520700D330C100D50B6070471FB51FBDFB
:1001400010B510BD00F088FB1146FFF7F7FF01F076
:1001500057FB00F0A0FB03B4FFF7F2FF03BC00F075
:10016000A7FB0000013800BFFCD1704770B5054601
:100170000C46164602E00FCC0FC5103E102EFAD2E8
:10018000082E02D303CC03C5083E042E07D301CCAE
:1001900001C5361F03E021782970641C6D1C761E92
:1001A000F9D270BD0748804707480047FEE7FEE7E1
:1001B000FEE7FEE7FEE7FEE704480549034A054B74
:1001C00070470000C10D0000C1000000C809001008
:1001D000C80B0010C8090010F8B5042A2CD38307F7
:1001E00012D00B78491C0370401C521E83070BD0A1
:1001F0000B78491C0370401C521E830704D00B78F7
:10020000491C0370401C521E8B079B0F05D0C91A56
:10021000DF002023DE1B08C90AE0FFF7A7FFF8BDB7
:100220001D4608C9FD401C46B4402C4310C0121F97
:10023000042AF5D2F308C91A521EF0D40B78491CCF
:100240000370401C521EEAD40B78491C0370401CFA
:10025000012AE4D409780170F8BD01E004C0091F47
:100260000429FBD28B0701D50280801CC90700D06E
:100270000270704700290BD0C30702D00270401CE7
:10028000491E022904D3830702D50280801C891EDF
:10029000E3E70022EEE70022DFE770477047704790
:1002A0001F22030C02D10F22000402D0030E03D040
:1002B00004E00020014670470002083A030F01D114
:1002C0000001121F830F01D18000921E002801DB64
:1002D0004000521E120551184205C0124118104626
:1002E0007047C10FC90700D0404201229207114355
:1002F000D6E701218907D3E770470000FFFFFFFF22
:10030000002203098B4273D3030A8B4258D3030B99
:100310008B423CD3030C8B4221D312E003460B43A8
:100320007FD4002243088B4274D303098B425FD3EE
:10033000030A8B4244D3030B8B4228D3030C8B421A
:100340000DD3FF22090212BA030C8B4202D3121200
:10035000090265D0030B8B4219D300E0090AC30BD5
:100360008B4201D3CB03C01A5241830B8B4201D382
:100370008B03C01A5241430B8B4201D34B03C01A6B
:100380005241030B8B4201D30B03C01A5241C30AE3
:100390008B4201D3CB02C01A5241830A8B4201D354
:1003A0008B02C01A5241430A8B4201D34B02C01A3E
:1003B0005241030A8B4201D30B02C01A5241CDD2E3
:1003C000C3098B4201D3CB01C01A524183098B422E
:1003D00001D38B01C01A524143098B4201D34B0117
:1003E000C01A524103098B4201D30B01C01A52417A
:1003F000C3088B4201D3CB00C01A524183088B4201
:1004000001D38B00C01A524143088B4201D34B00E9
:10041000C01A5241411A00D201465241104670475B
:100420005DE0CA0F00D04942031000D34042534060
:1004300000229C4603098B422DD3030A8B4212D320
:10044000FC22890112BA030A8B420CD38901921152
:100450008B4208D3890192118B4204D389013AD08F
:10046000921100E08909C3098B4201D3CB01C01A64
:10047000524183098B4201D38B01C01A5241430977
:100480008B4201D34B01C01A524103098B4201D365
:100490000B01C01A5241C3088B4201D3CB00C01AD2
:1004A000524183088B4201D38B00C01A5241D9D2EA
:1004B00043088B4201D34B00C01A5241411A00D26B
:1004C0000146634652415B10104601D34042002B67
:1004D00000D54942704763465B1000D3404201B5E6
:1004E0000020C046C04602BD30B50346CA02400DDA
:1004F0001043164D164C0A1502D02043002A06DB85
:10050000AA1A002A12DDD040FF2A0BDC30BD5205AA
:10051000520D01D140004008AA1A07D4D0404042F1
:10052000FF2A01DD002030BD0028FCDD4A00002B41
:1005300001D0012000E00020101801225205D04215
:10054000F0D8C817C043604030BD00001E04000052
:10055000000000800121C9050123411842001B064B
:10056000D3185B0E0AD0C1100722D20689184007A3
:100570005242D14201D5520089187047090208D56C
:100580000146002A03D0C10FC9070020704710465A
:100590007047420202D00020024970470721090536
:1005A0000143F4E70000F87FF0B5FF252D04C609EC
:1005B000C209FF2704462E400137CB093E4348407D
:1005C0002A402B400746002A6BD0002B69D0AA4254
:1005D00067D0AB4265D0002800DA32460125ED0530
:1005E00029432C4309022002090AD21A4B0C7F240A
:1005F000E31A434C000A7C44E35C7D242404121972
:1006000014145B00A218884201D3521C00E0400081
:1006100049420C465C4324115C43DB016415E3183A
:10062000040A5C43C502200D0C4644436419250AA4
:100630005D432303EC0C0D46654300030019EB18E2
:100640004C42A34201D35B18401CD4052018002B58
:1006500007D05B00C91804D3401C002901D1400811
:1006600040003F2189048A4209D3002A08DC110690
:10067000090F04D0032149074018C00FC007F0BD7F
:1006800001224100120689187F2252069142F6D2B9
:1006900005214907C84201D59010F0BDFF20C005D3
:1006A000F0BD002F00DA32461648AA4207D2AB420C
:1006B00005D21902090E17D0F80FC007F0BDFF25AB
:1006C00063002D06AB42F9D84900A942F6D8AB42E7
:1006D00001D1A942F2D0A94201D1002101E061007B
:1006E0004908D0050843F0BD1102090EFBD0FF20D8
:1006F0000243D005F0BD0A460146104654E700000B
:10070000D61500000000C07F1F22030C02D10F226B
:1007100000041CD0030E01D10002083A030F01D1DE
:100720000001121F830F01D18000921E002801DBFF
:100730004000521ED2055118021251181922904041
:1007400004D3491C002801D14908490008467047D4
:10075000C10FC90700D04042012292071143D3E7DD
:1007600001218907D0E70000F0B501230A0DDB0263
:1007700000249A43E4430025002A28D05B1E9A42B5
:1007800023D05B10D61AA64228DB721C48D0342E28
:1007900018D20222142E2BD822D00B460D36B3408D
:1007A00001D100280FD00024701E0B468340DB0FC0
:1007B000F2412846551EA943002B03D08918002C6E
:1007C00000D09143F0BD0124EEE79A4239D04A00AF
:1007D0000243F7D0C90FC9072846F0BD002223E025
:1007E0000122C30F400001D00024E2E70124E0E72A
:1007F0000346133EB34011D00023741E0746A740A2
:10080000FC0FF2411746521E9043002CE5D0002BFE
:1008100000D0521CC01969419043F0BD0123ECE7A0
:1008200001220B0318430AD00023C90FC907284629
:10083000002AF2D0002BF0D1054A1143F0BD01236C
:10084000F3E70A0301D10028F8D000200149F0BDE8
:100850000000F03F0000F87F754600F025F8AE4636
:10086000050069465346C008C000854618B020B54B
:10087000FFF7A2FC60BC00274908B6460026C0C5A9
:10088000C0C5C0C5C0C5C0C5C0C5C0C5C0C5403D48
:1008900049008D46704710B50446C046C046204604
:1008A000FFF759FC10BD00000048704768090010B0
:1008B00001491820ABBEFEE726000200FFB5080183
:1008C00087B0014602900798FFF71AFD01900A9839
:1008D000002202600122109800290260099A019802
:1008E00010604ADD01980024C10F08184010401C18
:1008F0000199E443009088423FDC029E0125464373
:100900000798801B03903046FFF722FF059003985D
:10091000FFF71EFF04902846059FFFF719FF0146C9
:10092000049801F073F83946FFF73EFEFFF712FE18
:1009300000F0C8FFFFF7D8FD074601460398714352
:100940006843081AFFF7CDFC49004908FFF7CCFDC2
:10095000611C01D0A04207DA04460A98076010988B
:1009600005600999009808606D1C102DD3DB009874
:100970000199401C00908842BFDD0BB0F0BD000023
:1009800070B5384A002555740121102304461132F0
:100990001175481C2832891C10705B1EF8D1324E2C
:1009A000B560324874610122F0600B21104600F0FE
:1009B00049F901220B21104600F058F92D482C4925
:1009C0000068FFF79DFC2C49401EFF22F5320860AD
:1009D000A01A94423BD006DC642C40D07D2C3BD046
:1009E000FA2C0BD136E0FF382D3804D0C82805D1B9
:1009F0000520800201E00B20400248607068012160
:100A00000068806802681C489047706800688068C9
:100A1000C1691A48884713481949416119498161D8
:100A200019490120487171681848096889688968FE
:100A30008847012016494003086016490868FF22CC
:100A4000120290430122D2031043086070BD0720B8
:100A50008002D2E71048D0E7FF201030CDE7FF201A
:100A60001430CAE7D4030010C00000107404001052
:100A700000127A003C000010F0000010F800001096
:100A8000FD050000FF0F0000F4030010E803001054
:100A900000E100E00CE400E0011C000002484068B6
:100AA0000068806840680047C00000100921814349
:100AB00009D110B50120044940030860034840698A
:100AC000FFF75EFF10BD704780E100E0C00000103E
:100AD00070B5124C06466874606800688068C1682A
:100AE00028468847012E0FD12178012002290CD0F9
:100AF000217803290CD02078042805D020780528F7
:100B000002D106202070256170BD2070256170BD66
:100B1000297A6029FBD1207070BD0000C000001050
:100B200001218140024882688A4382607047000048
:100B3000C000001006480178012908D0017800297A
:100B400005D081694A1E826101D20021017070477F
:100B5000C000001010B5204C21780022012905D0DA
:100B60002178002902D02270002010BD1B49C0004E
:100B70004318194819685B68C36281621849C878CC
:100B8000430602D50220207003E0212821D0032053
:100B90002070E068134B03604260082202744274C4
:100BA000CA7802720A884272120A82728A78C27203
:100BB00049680173090A4173090A8173090AC173FB
:100BC000616809688968096988471420A061012063
:100BD00010BD0520DCE70000C0000010381B00003D
:100BE000E80000107D06000010B5144C0246207885
:100BF0000021012805D02078002802D02170002093
:100C000010BD03202070E0680D4B03604160082395
:100C100003744374232303725023437283720123AA
:100C2000C372017342738173C17361680968896813
:100C3000096988471420A061012010BDC000001080
:100C40007D06000030B40125ED030123064C8B40E6
:100C50008000205840190168002A01D0194300E0A3
:100C60009943016030BC7047C01B00008A40044BB0
:100C700080001B580120884080001A5070470000F7
:100C8000C01B000070B53B490020496AC905090F27
:100C9000102929D20A007A4412799218974424071D
:100CA000090B0D0F11131517191B1D1F2123324896
:100CB0001AE0324818E0324816E0324814E0324870
:100CC00012E0324810E032480EE032480CE0324880
:100CD0000AE0324808E0324806E0324804E0324890
:100CE00002E0324800E03248224D696AC906890EA6
:100CF000891CFFF705FB2F490A6B2F4C9207920FB7
:100D000011D0012A04D0022A2BD0032A2AD10DE0C7
:100D100008688007800F06D0012804D0022827D059
:100D200003281FD124E0254820601BE008688007C5
:100D3000800F06D001280AD0022819D0032811D12B
:100D400016E0A868C005800F05D01C4809E0A86817
:100D5000C005800FF9D1A868184AC006C00E401C13
:100D600050432060896B2068FFF7CAFA206070BD8D
:100D70000020F6E70080044020A1070000350C00A9
:100D8000E0C81000C05C1500006A180040771B0026
:100D900080841E00C0912100009F240040AC2700E9
:100DA000E032290020402C00604D2F0000D430009C
:100DB00040E13300408004403C000010001BB700BD
:100DC00078B4194B986B2021884398631749002405
:100DD0000C62009400BF0098401C0090C828F9D312
:100DE0001348012505604560446045604268D207AC
:100DF000FCD023228A609A6B8026B2439A63CA6829
:100E0000D207FCD003210163456344634563416B12
:100E1000C907FCD085630748016801221204114309
:100E2000016078BC704700000082044000800440EC
:100E300040800440808004400A480168C9070FD000
:100E400010B501210160FFF775FE074908790128F7
:100E500005D14889421E4A8101D20220087110BD85
:100E600070470000004001400000001070B50646C9
:100E7000264984B000204860012125484D050560C1
:100E80002448426AD208D2004262426A0A4342625D
:100E9000826AD208D2008262826A0A4382621E4853
:100EA00002680B031A43026081611C4C8321E160DC
:100EB00081691B480068FFF723FA03A9009102AB80
:100EC00001AA3146FFF7FAFC0198010A6160C0B23D
:100ED00020600398029900010843A0620320E060AB
:100EE0000720A060606960694006800F0328FAD17E
:100EF0006069C00703D020686069C007FBD109485A
:100F000005600520606004B070BD00003000001076
:100F100080E100E080400440808004400080004088
:100F20003C00001000E100E070B42249886803250D
:100F30000007420F0023204C2D022048032A0CD02A
:100F4000022A21D0062A2AD0012A04D14969890619
:100F50002CD50121017070BC70474A699E26D2B21F
:100F6000324203D08260086870BC7047D207FBD061
:100F70000A6841686418491C416022704168A942AE
:100F8000F2D1436070BC70470A6841686418491C1C
:100F9000416022704168A942F3D070BC70478168FB
:100FA000FF2201321143816070BC7047037070BC36
:100FB00070470000008000406806001030000010FC
:100FC0000A7802704B7843708A788270CA78C2704F
:100FD0000B7903714A7942718A798271CB79C37135
:100FE000704700000121002802D00248416070478C
:100FF0000148FBE70080014000400140F748C1780C
:1010000001297DD1F8B5F5480021C170807801260D
:10101000F34D7603F34C012832D0032871D0042815
:1010200070D005286FD100220B210120FFF71EFE92
:10103000EA48012282710A211046FFF717FE20229A
:10104000E949EA48FFF7C8F8E94800210160E948A2
:10105000E6490160E8482A21016000270720FFF7E0
:1010600079FD2078012802D020780028F9D1207855
:1010700000287DD0032F7CD3686840077AD1B3E283
:1010800000220B210120FFF7F1FD00270320FFF7CD
:1010900061FD2078012802D020780028F9D120783D
:1010A00000280DD0032F10D36868400705D0D3481F
:1010B0000660D3480068FFF763FC0821D14899E037
:1010C0007F1CFFB2032FE1D3EEE7207801282AD15D
:1010D0000B22CD49CD48FFF77FF8CD48CB4C0068B7
:1010E0000023017B6171417BA171817BE171C07B38
:1010F0002072204682780321801C4578AA1803E0DC
:1011000091E220E04DE11DE08578801CEB1892B261
:101110009BB2491EF1D1D0186072000AA0720B2157
:10112000BA4800F061FCBB49002008700124AB4DB7
:101130002246AC710A212046FFF798FD2C71FF2052
:101140002D306881F8BD00220B210120FFF78EFDB4
:10115000A248817901292ED0012181719F480A215D
:1011600082790120FFF782FDA1490020086002E09A
:10117000B1E1B6E172E19F49A7480860FF219E48AE
:101180000531016000270720FFF7E4FC20780128E3
:1011900002D020780028F9D1207800280DD0032F24
:1011A00010D3686840076BD0944806609448006884
:1011B000FFF7E6FBB7E00021CFE77F1CFFB2032F6C
:1011C000E1D3EEE700270820FFF7C4FC20780628CB
:1011D00002D020780028F9D12078002805D0032FEC
:1011E0000BD368684007DFD19DE07F1CFFB2032F5F
:1011F000E9D3F6E700F0F8FBF8BD7D490A687E48C0
:1012000003689A422AD220780528FCD000F05AFAC6
:10121000002707E000F042FB2078062802D0207863
:101220000028F9D12078002804D138467F1CFFB26D
:101230000328EFD3032F0BD36868400705D06F480E
:1012400006606F480068FFF79BFB08217348D1E7F1
:1012500067480168684800688142D4D300270520A8
:10126000FFF778FC2078012802D020780028F9D1F7
:101270002078002805D0032F08D36868400793D151
:1012800051E07F1CFFB2032FE9D3F6E70027614846
:101290000078FFF7A9FC2078012802D020780028E8
:1012A000F9D12078002805D0032F08D368684007BB
:1012B00099D138E07F1CFFB2032FE8D3F6E700276F
:1012C0000A20FFF747FC2078012802D02078002868
:1012D000F9D12078002805D0032F08D3686840078B
:1012E000CDD120E07F1CFFB2032FE9D3F6E7002722
:1012F0000B20FFF72FFC2078012802D0207800284F
:10130000F9D1484846490068FEF7FAFFFF21F53158
:101310004843FEF727FF2078002807D0032F0AD381
:1013200068684007ABD108213F4863E77F1CFFB2E4
:10133000032FDDD3F4E73B4839490068FEF7E0FFAF
:101340007D21C9004843FEF70DFF304C3749204648
:10135000FFF736FE2F4D0023287860713449184678
:1013600002224E78F3188E78891C30189BB280B216
:10137000521EF6D11818A071000AE0710821234806
:1013800000F032FB2878401CC0B22870702803D9C6
:101390000821284800F028FBFF2010492D30488103
:1013A000F8BD00220B210120FFF760FC002704207C
:1013B000FFF7D0FB2078012802D020780028F9D14F
:1013C0002078002805D0032F36D368684007AAD0BC
:1013D000EAE67F1CFFB2032FE9D3F6E70000001016
:1013E00000000540C00000100C1B0000A802001007
:1013F000DC000010E0000010E400001080E100E0DC
:10140000D4000010BC1A00002C1B00004402001085
:10141000D000001014000010A9020010E41A00000F
:1014200000127A003C000010CC1A0000F41A0000F0
:1014300045020010EC1A000000270520FFF78AFB88
:101440002078012802D020780028F9D120780028BF
:101450000BD0032F0ED36868400754D07248066043
:1014600072480068FFF78CFABEE07F1CFFB2032FC2
:10147000E3D3F0E700270620FFF76CFB2078012874
:1014800002D020780028F9D16A4869490068FEF73F
:1014900037FF69494843FEF765FE207800280DD0E4
:1014A000032F10D36868400705D05F4806605F4887
:1014B0000068FFF765FA082160489BE67F1CFFB2D1
:1014C000032FD8D3EEE708215D4800F08DFA5D497F
:1014D0000020087060E77F1CFFB2032F00D2BDE53B
:1014E000CAE500270820FFF735FB2078062802D040
:1014F00020780028F9D12078002805D0032F08D3C0
:1015000068684007AAD16FE07F1CFFB2032FE9D3C0
:10151000F6E74D4802684D490B689A4222D220787E
:101520000528FCD000F0CEF8002707E000F0B6F95F
:101530002078062802D020780028F9D120780028C9
:1015400004D138467F1CFFB20328EFD3032F03D307
:101550006868400782D147E03B4801683B48006823
:101560008142DCD300270420FFF7F4FA2078012819
:1015700002D020780028F9D12078002805D0032F48
:1015800008D368684007BDD12EE07F1CFFB2032F4F
:10159000E9D3F6E700270C20FFF7DCFA20780128D2
:1015A00002D020780028F9D12078002805D0032F18
:1015B00008D368684007A5D116E07F1CFFB2032F4F
:1015C000E9D3F6E700270D20FFF7C4FA20780128B9
:1015D00002D020780028F9D12078002807D0032FE6
:1015E0000AD3686840078DD10821194802E67F1C9C
:1015F000FFB2032FE7D3F4E701220B211046FFF7D8
:1016000035FB0821134800F0EFF913480021017160
:10161000084807490068FEF773FE7D21C90048436A
:10162000FEF7A0FDF8BD704780E100E0D400001097
:1016300000127A003C00001050C30000DC1A0000C9
:10164000FC1A000014000010DC000010E400001080
:10165000D41A0000041B000000000010F0B40023A6
:10166000134C144A05250326002810D001280CD15C
:1016700020682715384320605360D3600E4881618D
:10168000856246610D4879020160F0BC70472068B0
:1016900001277F023843206013609360084881610E
:1016A00085624661054879020160F0BC7047000020
:1016B00080800440180000100080014000E100E03C
:1016C0000040014070B54C4DE2212869007A01408C
:1016D000602906D04009012803D0412000F07CF9A0
:1016E00070BD05202870EC680820607443492160B3
:1016F000207428691026007A41090020032901D1AD
:10170000E8612672217A8E432672E9696A6A9142FB
:1017100007D2EA69296A895C6172E969491CE96151
:1017200000E06072E9696A6A914207D2EA69296A4F
:10173000895CA172E969491CE96100E0A072E9696C
:101740006A6A914207D2EA69296A895CE172E969A9
:10175000491CE96100E0E072E9696A6A914207D2D6
:10176000EA69296A895C2173E969491CE96100E039
:101770002073E9696A6A914207D2EA69296A895C39
:101780006173E969491CE96100E06073E9696A6AAB
:10179000914207D2EA69296A895CA173E969491C07
:1017A000E96100E0A073E9696A6A914207D2E969D8
:1017B000286A405CE073E869401CE86100E0E0737F
:1017C000E869696A88420ED10721686AFEF798FDC8
:1017D0000720401A072800D10020410001200143C2
:1017E0000E43267228701420A8616868006880681B
:1017F00001692046884770BDC00000107D060000CA
:10180000FFF740FA01220A211046FFF71BFA0125D3
:101810001B4C2A46A5710A212846FFF727FA1948CA
:10182000FFF724FB6420FFF7ABF817484168294312
:101830004160164864210068FEF762FD411E0020E9
:10184000FFF70CFF0020FFF7CDFB0127104D7F03B2
:10185000002600F03BF8FFF7D1FB20790228F8D1F1
:1018600001220B211046FFF701FA6868400705D0F6
:101870000848076008480068FFF782F82671E8E723
:101880000000001040420F00008004403C000010A7
:101890000000054080E100E0D40000100749052069
:1018A0000870C86808224274054B03600274142251
:1018B0008A6149680968896809690847C000001099
:1018C0007D06000010B5FEF74FFF10BDF8B53C4C8B
:1018D0003C4821690268914270D003273A4E3F028A
:1018E0000025705C491C2161B94200D32561217833
:1018F00006295ED20A007A441279921897440206A9
:101900000B1226365A2854D1012002E0A5284FD1C7
:10191000022020704DE0E081607065712581032018
:10192000207046E0E1890918E1816279D1008840A0
:101930002189521C084380B2D1B2208161710229F1
:1019400037D3002834D0A5810420E2E7E1891F4A7B
:101950000918E181A1895054491C88B2A0812189CC
:10196000884226D36571A5810520D2E76279D1002E
:101970008840A189521C084380B2D1B2A081617114
:10198000022916D3E18988420ED121891048491CC9
:10199000FEF77FFC22890D490D48FEF71DFC60789B
:1019A000A0700120E07003E008210A4800F01CF854
:1019B0002570044821690068814292D1F8BD000079
:1019C000000000103400001068060010180100101C
:1019D000A8020010C41A00000249086048694006C5
:1019E000FCD570470080004010B40024002909D9BC
:1019F000054A03781360401C53695B06FCD5641CE0
:101A00008C42F6D310BC70470080004070B5420095
:101A100064414B005C41120E39D01B0E38D0FF2AB6
:101A20003CD0FF2B3AD040024902400A490A060046
:101A300045184E43000A090AD2184843ED017F3A7F
:101A40000104731A4019190C4318990F04D001218D
:101A50005B0849075B1A521CD80904D3401CF503E4
:101A600001D19D0607D0FF2A08D2D50506D0E4078C
:101A70002043401970BD0125A843F4E7002A01DC8A
:101A8000E00770BD2402FF202043C00570BD1B0E7F
:101A9000FF2A03D0FF2B01D0E00770BDFF264500D1
:101AA0003606B54206D84D00B54203D8D218FF2AF3
:101AB00000D0E7E7004870BD0000C07F33CC0201D2
:101AC00000E1E40033CC020100E2E50033CC020186
:101AD00000E3E60033CC020100E5E60033CC02016E
:101AE00000E6E60033CC020100E7E70033CC020158
:101AF00000E4E70033CC03010000E60033CC04012E
:101B00000001060033CC05010001070040BA704710
:101B1000C0BA7047BFF34F8F03490248C860BFF394
:101B20004F8FFEE70400FA0500ED00E033CC01041E
:101B30000001020304000000005101400000000009
:101B4000005102400000000000510340000000006E
:101B500000510440000000000050002B5A5A0000C1
:101B60002050002B000600003050002B0006000023
:101B70001550002300100010501F0121000100002B
:101B800050500123000000005050022300100010AC
:101B90005050032B0001000070500123081000106A
:101BA000511F012F0100000060500223001000109F
:101BB0006050032300010000605004400001000059
:101BC00000000050000001500000025000000350CF
:101BD0008182838485868788898B8C8D8E8F919274
:101BE00093959697999A9C9D9FA0A2A3A5A7A8AA12
:101BF000ACAEB0B2B3B5B7B9BCBEC0C2C5C7C9CC34
:101C0000CED1D4D7D9DCDFE2E6E9ECF0F3F7FAFE87
:101C1000301C00000000001018010000040100004A
:101C2000481D000018010010B00A0000200100004B
:101C300000000000000000000000000000000000A4
:101C40000000000000000000000000000000000094
:101C50000000000000000000000000000000000084
:101C6000010000000000000000000000006CDC0229
:101C70000000000000000000000000000000000064
:101C8000FF00000000000000000000000000000055
:101C90000000000000000000000000000000000044
:101CA0000000000000000000000000000000000034
:101CB0000000000000000000000000000000000024
:101CC0000000000000000000000000000000000014
:101CD0000000000000000000000000000000000004
:101CE00000000000000000000000000000000000F4
:101CF00000000000F81FFF1F0000000000000000AF
:101D000000000000000000000000000000000000D3
:101D100000000000000000000000000000000000C3
:101D20000000000000000000D10A0000210B0000AC
:101D3000AD0A0000000000000000000000000000EC
:081D400000000000000000009B
:04000005000000C136
:00000001FF
