:020000040800F2
:1000000070040020E1000008350200082D020008FD
:1000100031020008970100086D020008000000008E
:10002000000000000000000000000000590200086D
:100030009B01000800000000370200085B02000876
:10004000FB00000800F002F800F03AF80AA090E87F
:10005000000C82448344AAF10107DA4501D100F083
:100060002FF8AFF2090EBAE80F0013F0010F18BF16
:10007000FB1A43F00103184780020000A0020000B1
:10008000103A24BF78C878C1FAD8520724BF30C8C4
:1000900030C144BF04680C60704700000023002496
:1000A00000250026103A28BF78C1FBD8520728BF88
:1000B00030C148BF0B6070471FB51FBD10B510BDE4
:1000C00000F02FF81146FFF7F7FF00F0D1F800F02D
:1000D0004DF803B4FFF7F2FF03BC00F055F8000041
:1000E0000948804709480047FEE7FEE7FEE7FEE7CC
:1000F000FEE7FEE7FEE7FEE7FEE7FEE70448054908
:10010000034A054B704700005D02000845000008E7
:1001100070000020700400207000002070477047BD
:100120007047754600F02CF8AE4605006946534608
:1001300020F00700854618B020B5FFF7DFFFBDE8C7
:1001400020404FF000064FF000074FF000084FF03E
:10015000000B21F00701AC46ACE8C009ACE8C009CF
:10016000ACE8C009ACE8C0098D46704710B504463C
:10017000AFF300802046BDE81040FFF7AABF0000A3
:10018000004870470C00002001491820ABBEFEE774
:1001900026000200704700BFFEE77047F0B50A4630
:1001A00000210023002400BF3DE0012505FA01F3F2
:1001B000156805EA03049C4234D105684F00032604
:1001C000BE40B543056015794E00B540066835431D
:1001D00005601579012D02D01579022D16D185689B
:1001E0004F000326BE40B543856055794E00B540AB
:1001F000866835438560456801268E40B543456075
:10020000456896798E40B6B235434560C5684F0063
:100210000326BE40B543C560D5794E00B540C668DB
:100220003543C560491C1029BFD3F0BD00BFFEE7B0
:1002300000BFFEE77047704729B1064A12680243C3
:10024000044B1A6004E0034A12688243014B1A60AF
:10025000704700003038024070477047014802493B
:1002600008607047006CDC020800002000BFFEE759
:1002700001214020FFF7E0FF4FF4A0701C49086007
:100280000120087100208871032048710020C87186
:100290001848FFF783FF2AE04FF4A0701549183182
:1002A0000880891C0880891E0880891C0880891E96
:1002B0000880891C0880891E0880891C0880891E86
:1002C0000880891C0880891E0880891C0880891E76
:1002D0000880891C0880891E0880891C0880891E66
:1002E0000880891C0880891E0880891C0880D3E743
:1002F0000000002000180240180300080000002041
:100300000C00000080000008240300080C000020FE
:10031000640400009C0000080000000000000000D1
:04032000006CDC028F
:0400000508000045AA
:00000001FF
