:020000040000FA
:1000000008160010B5010000BD010000BF0100008E
:1000100000000000000000000000000000000000E0
:10002000000000000000000000000000C10100000E
:100030000000000000000000C3010000BD2B000014
:10004000C7010000C7010000C7010000C701000090
:10005000C7010000C7010000C7010000C701000080
:10006000C7010000C7010000C7010000C701000070
:10007000C70100008112000045270000C7010000F1
:10008000C7010000C7010000BD2E0000452F000081
:10009000ED2600003D390000C7010000C701000047
:1000A000C7010000C7010000C7010000C701000030
:1000B000D1250000C7010000C7010000C7010000F2
:1000C00000F002F800F046F80CA030C808382418F8
:1000D0002D18A246671EAB4654465D46AC4201D180
:1000E00000F038F87E460F3E0FCCB646012633426C
:1000F00000D0FB1AA246AB463343184778530000A2
:10010000985300000023002400250026103A01D354
:1001100078C1FBD8520700D330C100D50B607047BF
:1001200010B5642902D100F0EBF810BD632902D1AB
:1001300000F0C7FC10BD002010BD1FB500F0D8F8BE
:1001400004000020002104F0F3FF401C60601FBD8C
:1001500010B510BD00F0C6FD1146FFF7EEFF04F02C
:1001600083FE00F0DEFD03B4FFF7F2FF03BC00F0F6
:1001700057FE0000013800BFFCD1704770B505463E
:100180000C46164602E00FCC0FC5103E102EFAD2D8
:10019000082E02D303CC03C5083E042E07D301CC9E
:1001A00001C5361F03E021782970641C6D1C761E82
:1001B000F9D270BD0748804707480047FEE7FEE7D1
:1001C000FEE7FEE7FEE7FEE704480549034A054B64
:1001D000704700000D2E0000C10000000812001042
:1001E00008160010081200100FB41CB5074B06AA21
:1001F0007B4469460090059800F045FC0020694664
:1002000000F071F81CBC08BC04B01847F3000000F3
:10021000F8B50E460446002020622046E168884773
:10022000002829D0252802D06268A16820E0E16872
:1002300020460027884705001ED028464138192847
:1002400002D80127FF022035324620462760294682
:10025000FFF766FF002808D0012804D0F61DF60835
:10026000F6000836D9E7361DD7E762682846A16848
:100270009047206A401CCFE7206AF8BD70B50C4655
:100280000546012A05D02878800600D5EA690023B2
:1002900002E0012305E05B1C934202D2E05C0028EF
:1002A000F9D1A869E618C01AA861286AC01828629E
:1002B0002846C046C04604E06A682078A968641CE5
:1002C0009047B442F8D32846C046C04670BDD2B26B
:1002D00010B513029A1813049A1800F00DF910BD06
:1002E0007047704770470A681070521C0A60704768
:1002F00000487047C811001070470000FFFFFFFF63
:10030000F7B5002575291068009914A611D0C046CC
:10031000C046002802DA404211A608E000990968A8
:100320008A0701D50FA602E0490704D50EA60125CC
:1003300001E0C046C046009F0024243704E000F0DE
:10034000EAFB30313955641C0028F8D12B4632467F
:100350002146009800F039FBFEBD000000000000BF
:100360002D0000002B00000020000000FEB50D460F
:100370000646174602210020C046C04600240190D0
:1003800014E029786846019A6D1C00F0A6FB411C18
:1003900011D0801C0AD0002E03D06846008861006E
:1003A00070526846641C0088002805D0002EE8D0F2
:1003B000BC42E6D32046FEBD641EFBE7034610B5F3
:1003C0000B439B070FD1042A0DD308C810C9121F75
:1003D000A342F8D018BA21BA884201D9012010BD31
:1003E0000020C04310BD002A03D0D30703D0521C05
:1003F00007E0002010BD03780C78401C491C1B1B33
:1004000007D103780C78401C491C1B1B01D1921E9C
:10041000F1D1184610BD000030B5441C03E001784E
:10042000401C00290DD08107F9D10B4BDD0104C818
:10043000D11A91432940FAD0001B0A0603D0C01EEE
:1004400030BD001B30BD0A0401D0801E30BD090242
:10045000FCD0401E30BD000001010101F8B5042AA6
:100460002CD3830712D00B78491C0370401C521EFA
:1004700083070BD00B78491C0370401C521E830766
:1004800004D00B78491C0370401C521E8B079B0F35
:1004900005D0C91ADF002023DE1B08C90AE0FFF7D8
:1004A0006DFEF8BD1D4608C9FD401C46B4402C43F6
:1004B00010C0121F042AF5D2F308C91A521EF0D434
:1004C0000B78491C0370401C521EEAD40B78491C5F
:1004D0000370401C012AE4D409780170F8BD01E0E2
:1004E00004C0091F0429FBD28B0701D50280801CA0
:1004F000C90700D00270704700290BD0C30702D093
:100500000270401C491E022904D3830702D50280D1
:10051000801C891EE3E70022EEE70022DFE70022CD
:1005200003098B422CD3030A8B4211D300239C4630
:100530004EE003460B433CD4002243088B4231D3A8
:1005400003098B421CD3030A8B4201D394463FE03C
:10055000C3098B4201D3CB01C01A524183098B429C
:1005600001D38B01C01A524143098B4201D34B0185
:10057000C01A524103098B4201D30B01C01A5241E8
:10058000C3088B4201D3CB00C01A524183088B426F
:1005900001D38B00C01A524143088B4201D34B0058
:1005A000C01A5241411A00D20146524110467047CA
:1005B0005DE0CA0F00D04942031000D340425340CF
:1005C00000229C4603098B422DD3030A8B4212D38F
:1005D000FC22890112BA030A8B420CD389019211C1
:1005E0008B4208D3890192118B4204D389013AD0FE
:1005F000921100E08909C3098B4201D3CB01C01AD3
:10060000524183098B4201D38B01C01A52414309E5
:100610008B4201D34B01C01A524103098B4201D3D3
:100620000B01C01A5241C3088B4201D3CB00C01A40
:10063000524183088B4201D38B00C01A5241D9D258
:1006400043088B4201D34B00C01A5241411A00D2D9
:100650000146634652415B10104601D34042002BD5
:1006600000D54942704763465B1000D3404201B554
:100670000020C046C04602BD30B50346CA02400D48
:100680001043164D164C0A1502D02043002A06DBF3
:10069000AA1A002A12DDD040FF2A0BDC30BD520519
:1006A000520D01D140004008AA1A07D4D040404260
:1006B000FF2A01DD002030BD0028FCDD4A00002BB0
:1006C00001D0012000E00020101801225205D04284
:1006D000F0D8C817C043604030BD00001E040000C1
:1006E000000000801F22030C02D10F22000402D060
:1006F000030E03D004E00020014670470002083AD0
:10070000030F01D10001121F830F01D18000921E3F
:10071000002801DB4000521E120551184205C0128C
:10072000411810467047C10FC90700D0404201224E
:1007300092071143D6E701218907D3E70121C905B3
:100740000123411842001B06D3185B0E0AD0C110CA
:100750000722D206891840075242D14201D55200E1
:1007600089187047090208D50146002A03D0C10F35
:10077000C9070020704710467047420202D000208F
:1007800002497047072109050143F4E70000F87F9B
:10079000F0B5FF252D04C609C209FF2704462E40E7
:1007A0000137CB093E4348402A402B400746002AE8
:1007B0006BD0002B69D0AA4267D0AB4265D000282D
:1007C00000DA32460125ED0529432C4309022002B7
:1007D000090AD21A4B0C7F24E31A434C000A7C44CA
:1007E000E35C7D242404121914145B00A2188842CF
:1007F00001D3521C00E0400049420C465C432411E6
:100800005C43DB016415E318040A5C43C502200D58
:100810000C4644436419250A5D432303EC0C0D4642
:10082000654300030019EB184C42A34201D35B1847
:10083000401CD4052018002B07D05B00C91804D336
:10084000401C002901D1400840003F2189048A4210
:1008500009D3002A08DC1106090F04D00321490737
:100860004018C00FC007F0BD0122410012068918D0
:100870007F2252069142F6D205214907C84201D58E
:100880009010F0BDFF20C005F0BD002F00DA324609
:100890001648AA4207D2AB4205D21902090E17D058
:1008A000F80FC007F0BDFF2563002D06AB42F9D855
:1008B0004900A942F6D8AB4201D1A942F2D0A942DF
:1008C00001D1002101E061004908D0050843F0BDD5
:1008D0001102090EFBD0FF200243D005F0BD0A46ED
:1008E0000146104654E70000524C00000000C07F53
:1008F00010B501469E240002CA15A307002A02D0A3
:100900001843002A04DBA21A002A0CDDD04010BDD7
:100910001206120E01D140004008A21A03D4D040A2
:1009200040420028F3DDFF2248001206904201D920
:10093000002010BDC817C043584010BD0102C215A9
:1009400004D00123DB071943002A0ADB9E239A1AED
:1009500002D40846D0407047FF224100120691425F
:1009600001D900207047C017C04370471F22030CF5
:1009700002D10F2200041CD0030E01D10002083A5C
:10098000030F01D10001121F830F01D18000921EBD
:10099000002801DB4000521ED205511802125118E6
:1009A0001922904004D3491C002801D1490849006C
:1009B00008467047C10FC90700D040420122920784
:1009C0001143D3E701218907D0E7FFB504460D465F
:1009D00081B0243000902168880604D51022E06997
:1009E0009143216000E00120A84201DD471B00E0A7
:1009F00000270498A1697A191018081AA0612078B4
:100A0000C00602D42046C046C046002608E003982F
:100A10006268A168805D9047206A401C761C206255
:100A200004988642F3DB2078C0060AD52046C046EB
:100A3000C04606E06268A16830209047206A401CEA
:100A4000206238467F1E0028F4DC07E000986268C8
:100A5000A168405D9047206A401C206228466D1EB8
:100A60000028F3DC2046C046C0462078000602D5A8
:100A7000022005B0F0BD0120FBE7000001694A1C1F
:100A800002610878704700B58FB00291002105918E
:100A90000549019379440391114604906846FFF794
:100AA000B7FB0FB000BD0000E5FFFFFF10B54369C5
:100AB000002B02D0C046C04601E0FFF7DFFB01205B
:100AC00010BD1278014624310A7000224A700122BA
:100AD000ECE711680022D243E8E770B516460C46F1
:100AE000054600F0D7F80368FF200230C05C0128FB
:100AF00005D0185D00280BD001202C8070BDFF337D
:100B00003246214604331868C3182846984770BDFA
:100B10000020C04370BD01468008081A0209101861
:100B2000020A1018020C1018C00882001218520095
:100B3000891A01E0401C0A390A29FBD270470000DB
:100B4000F0B501230A0DDB0200249A43E44300259B
:100B5000002A28D05B1E9A4223D05B10D61AA642E8
:100B600028DB721C48D0342E18D20222142E2BD827
:100B700022D00B460D36B34001D100280FD00024FF
:100B8000701E0B468340DB0FF2412846551EA943D9
:100B9000002B03D08918002C00D09143F0BD012414
:100BA000EEE79A4239D04A000243F7D0C90FC9078D
:100BB0002846F0BD002223E00122C30F400001D0EF
:100BC0000024E2E70124E0E70346133EB34011D0DE
:100BD0000023741E0746A740FC0FF2411746521E21
:100BE0009043002CE5D0002B00D0521CC019694165
:100BF0009043F0BD0123ECE701220B0318430AD018
:100C00000023C90FC9072846002AF2D0002BF0D1D3
:100C1000054A1143F0BD0123F3E70A0301D100287F
:100C2000F8D000200149F0BD0000F03F0000F87F3F
:100C300010B5FF231B0644009C421DD84C009C426B
:100C40001AD80346124A0B4307D4401A02D3EFF3D3
:100C5000008010BDEFF3008010BD081A06D2EFF33C
:100C6000008001219043C907084302E0EFF30080B0
:100C7000904380F3008810BD0D231B041A4204D05A
:100C80001146002000F00EF810BD00F023F810BD52
:100C90000000009010B5FFF72BFB001D10BD00BF3A
:100CA00091440000C80212D54803400F002804D028
:100CB000C803C043012188407047EFF30080000162
:100CC000000903210907084380F3008870470020CA
:100CD0007047000010B5024800F02BF810BD00006E
:100CE0000000C07F754600F053F8AE460500694627
:100CF0005346C008C000854618B020B5FFF764FA17
:100D000060BC00274908B6460026C0C5C0C5C0C59E
:100D1000C0C5C0C5C0C5C0C5C0C5403D49008D46A1
:100D2000704710B50446C046C0462046FFF71BFA80
:100D300010BD10B50C461107090F092904D00A2966
:100D40000AD008290CD104E011460820FFF7AAFFB9
:100D500006E0510606D501E0510601D50120C00785
:100D6000214610BDD10607D501010909CC08490764
:100D7000000E0006044309E0410F20024907000A63
:100D80000143200E00061D22D14101430846E7E73A
:100D900000487047A8110010024670B50A43920738
:100DA0002AD11E4DEE0104C808C9541B9443344097
:100DB00017D0D0B2D9B2401A2106014310D190B257
:100DC00099B2401A210401430AD110021902000A03
:100DD000090A401A2102014302D1100E190E401ACD
:100DE00070BD9A42DFD010BA19BA884201D90120E9
:100DF00070BD0020C04370BD02780B78401C491CB8
:100E0000002A09D09A4207D102780B78401C491C6D
:100E1000002A01D09A42EFD0D01A70BD0101010121
:100E200001491820ABBEFEE72600020030B58C1841
:100E30000278401C13071B0F01D10378401C1209D4
:100E400006D10278401C03E00578401C0D70491C57
:100E50005B1EF9D101E00B70491C521EFBD1A1426F
:100E6000E6D3002030BDFFB591B0129800010E907E
:100E70000E991198FFF753FB0A910E991198FFF7FD
:100E80004EFB064600211498016001211A9801606A
:100E9000139806600A98002852DD881E0D9030468F
:100EA000F10F091849104C1C48E00E9F6743119838
:100EB000C01B0F9001253EE03846FFF77BFD0490F4
:100EC0002846FFF777FD02900F98FFF773FD01901A
:100ED000029904F0B3F903900499FFF759FC0590C7
:100EE000FFF72CFC0791069004F01EF90991089079
:100EF000FFF7C2FB0C900C9A7A430F996943501A82
:100F0000FFF711FC4900490809910890FFF7B4FB6D
:100F10000B900D98401C002803D00D990B98884227
:100F200008DA0B980D9014990C9808601A980560CF
:100F3000139804606D1C102DBEDB641CB442B4DD3C
:100F400015B0F0BD10B504460448038822460021C0
:100F50000320000600F0FEF810BD00007001001034
:100F600010B504460248047200F094F810BD000069
:100F70005C10001070B504460D46044803882A46EC
:100F800021460120400600F0E5F870BD7001001018
:100F900070B50546002405E0142060432E4A8018F1
:100FA0004474641C212CF7DB00202C4908602C4879
:100FB00005602C482C49086101220821104600F0E8
:100FC00091FE00220821012000F09EFF284600F03B
:100FD00061F9264800680068806801210268244899
:100FE00090472248006800688068C16921488847A6
:100FF00021480088012149074018204908602048FD
:10100000486001204874084600F098F81D481B49C4
:1010100048611D491948816102211430417400F072
:101020008DF8154800880005000A272109060843A5
:101030001649086005200874822114484172002175
:1010400081720121C172052101730D2001218140AE
:101050000F4A116000BF70BDA00D001064010010A8
:10106000800100107010001070110010600100105D
:10107000780100108401001070010010341000107D
:10108000FF0F000000100020FFFFFF005C100010A9
:1010900000E100E0F8B505460826032400272348B0
:1010A00040684007400F002800D0F8BD11E0781CD0
:1010B00007467D21C900884200D20AE00027601C53
:1010C000C0B20446202800DB03240120A0400646CD
:1010D00000BF1748006830400028E8D11448006875
:1010E00030431349086014206043124A29681150A4
:1010F00014206043801869684160297C1420604393
:10110000801801741420604311464018EA68A968E9
:10111000C260816014226243064BD018064A1268EE
:10112000126892681169884700BFBEE70000054059
:1011300064010010A00D00106001001010B50446FD
:10114000034800680068806881682046884710BDB1
:1011500060010010FFB587B00E461446464800886F
:101160000005000D444908803605360D0121490768
:10117000079808433043009040490A98884206D1B6
:101180003D490988009809030843009005E00A9941
:101190000905090A009808430090207869460872FA
:1011A000208800124872A17868468172E178C17285
:1011B000E07804280DDCE078001D69460874E278C8
:1011C00003A82169FFF74AF96846FFF763FF0BB0F0
:1011D000F0BD082069460874042203A82169FFF7BE
:1011E0003DF96846FFF756FFE178081F0721FFF732
:1011F000A0F9C7B2E178081F0721FFF79AF9C8B232
:101200000690042005900698002801D0781CC7B2EB
:1012100000252CE00521C9060798084316490988CE
:101220000903084330430090781EA84202DC069868
:10123000002801D1082001E00698401CC1B2684690
:1012400001740572007C421E23690598191802A8D2
:101250000130FFF703F96846FFF71CFF6846007C82
:10126000401E05994018C0B20590681CC5B2BD4229
:10127000D0DB00BFABE7000070010010FFFF0000F3
:1012800010B503490968096889684868804710BD36
:101290006001001010B5044619491A480068FFF7AC
:1012A0003EF9401E18490860FF21F531601A8C4252
:1012B00015D004DC7D2C1BD0FA2C1ED114E0FF3895
:1012C0002D38002806D0C82817D1052080020E49E5
:1012D000486012E00B2040020B4948600DE00720F7
:1012E00080020949486008E008480749486004E06E
:1012F0000648801C0449486000BF00BF10BD0000C4
:1013000000127A004C00001078010010011C00004F
:1013100010B5044609202040092809D10D200121DB
:101320008140044A116000BF03480068FFF730FEA7
:1013300010BD000080E100E080010010F8B5064615
:1013400014207043784944180120B0407749096857
:101350000843764908607648006800688068C1687C
:10136000204688470F210906206808400746206864
:101370000002000D0090FF200006381800280DD054
:10138000FD210906401800286FD0401800286DD0B4
:101390007F2149064018002866D168E0207C042897
:1013A00062DB607A0002217A084362490880A07AF1
:1013B0008870E07AC8700846C078042816DC0020DF
:1013C00008714871CA78086921460C31FFF746F860
:1013D0005849009801F0F8FC57480068002843D0AD
:1013E0005449554A0098126890473DE05149C978E0
:1013F000081F0721FFF79DF84E490871C978081F9B
:101400000721FFF796F8C8B24A4948710846407963
:10141000002803D008460079401C0871FF220821EB
:1014200044480830FEF753FF00250FE068118100A3
:10143000404808304158EA06D20E012090408143CE
:10144000681182003B48083081506D1C3948007992
:10145000A842EBDC37490422086921460C31FEF72B
:10146000FDFF04203549087054E041E051E0207A46
:10147000401181002F4808304058217ACA06D20E08
:10148000012191400143207A40118200294808300F
:101490008150207AC100081A001D2849087025488B
:1014A000C0780978884200DC34E0217C4A1E21495A
:1014B0000969224B1B78C81821460931FEF7CEFF77
:1014C0001C488068401C002811D11A48C068401C84
:1014D00000280CD11749009801F076FC16480068E6
:1014E000002804D01349144A00981268904711E06C
:1014F000E07A00280CD112480068002808D0627AEF
:101500001202237A1A431046A17A0D4A12689047B4
:1015100000E000BF00BF0120B040044909688143DA
:1015200002480160F8BD0000A00D00106401001029
:10153000600100107011001068010010A40100107B
:101540006C01001001218140024A12688A4301495E
:101550000A6070476401001070B5054600241EE063
:101560000120A0402840002800D116E0A100104A28
:1015700051580968A2000F4B9A581268881AFFF751
:1015800019FA06460C48006801683046FFF700F972
:10159000A1000A4A5158086000BF601CC4B2042C64
:1015A000DEDB064810220168202003F043F870BDFE
:1015B000F0030010D0030010D4000010E00300106E
:1015C00070B588B006460C46AF4D281F0680FF2038
:1015D000291F087608461830286120882880A078BE
:1015E000A8700120E8702188A84A881A914278D012
:1015F00011DCA74A881A914267D007DC002919D06C
:10160000FE2918D0501E081A6CD136E001286AD085
:101610000228F9D1FBE0032827D004DC01287CD084
:101620000228F1D10DE09B494018002876D001280E
:10163000EAD11AE120E101F065FA00202969087079
:101640001AE12020E8706846286193480268104635
:101650000BC8D26802930392019100908F480368EF
:101660000FCB079304AB07C306E121690878FFF7A6
:1016700073FF002029690870FEE0A078002805D1DA
:101680001020E8708648006828611DE02069007815
:10169000042800DBF0E02269511C12789200804B94
:1016A00098580422FEF7DAFE2269127892007C4BE9
:1016B000995822691278920010462030042202F0D4
:1016C000B9FF002029690870D6E0A07800280BD166
:1016D0007448006800781930E87073480068286121
:1016E00041E05EE0C7E03FE0E078192800DAC3E0BF
:1016F00010226D4821690068FEF7B0FE206901469E
:101700001031042269480068FEF7A8FE20690146EE
:10171000143104226648006801E05DE09EE0FEF7B7
:101720009DFE2069007E4006400E5E4909680870F3
:101730005C48006802782069014619315D480068FC
:10174000FEF78CFE574800680078024619325A4965
:10175000802002F06FFF02F0E5FA0120574908707F
:1017600000202969087087E0A078002805D10420AE
:10177000E87053480068286112E0E078042800D23D
:101780007AE004224E4821690068FEF767FE0422D1
:101790004B480168382002F04DFF0020296908708D
:1017A0006AE0A078002805D10220E870454800686A
:1017B000286110E0E078022800DA5DE04149206904
:1017C000096802780A704078487001203E49087024
:1017D0000020296908704FE0A078002805D1022078
:1017E000E8703A480068286110E0E078022800DAE2
:1017F00042E036492069096802780A7040784870EA
:1018000001203349087000202969087034E0A0786D
:10181000002805D10320E8702E48006828611CE0EC
:10182000E078032800DA27E0206900782169497808
:1018300009020843274909680880206980782649F9
:10184000096808700322234801683C2002F0F2FE78
:1018500002F068FA0020296908700DE0206902F0A2
:10186000E3F8012002F054FB06E002F0D3F828610F
:101870001220E87000E000BF00BF29463046FFF7A5
:1018800079FB08B070BD0000400800100480000023
:1018900001800000FDEFFFFFD0030010F0030010F7
:1018A000E0030010F8000010F4000010CC0000105D
:1018B000D0000010FC000010500200102A0100109F
:1018C000D4000010E80000102B010010EC00001004
:1018D0002C010010D8000010DC00001070B5044688
:1018E0000D46002D00D070BD2F480078002800D094
:1018F000F9E72E48048000202C4988702C480861A4
:10190000E01FF93800281CD0012804D0F02843D06B
:10191000FF2845D139E027480078002810D0202042
:101920002249C8702448066821484ECE4EC023483C
:1019300006681F484ECE10304EC001201A4908706C
:101940002FE01C48007800281ED029201749C870B5
:101950001B4840781649087008221949203114485C
:10196000401CFEF77BFD1022164801681048093024
:10197000FEF774FD1022144801680D481930FEF777
:101980006DFD0120084908700BE00A48007801212C
:1019900048400849087004E0012000F041FE00BF03
:1019A00000BF00BF00BF9EE71001001058080010E4
:1019B0007C08001028010010D0030010F003001074
:1019C000C0010010E0000010F400001010B5242247
:1019D0001649D00002F0EAFD144920310A78104679
:1019E0004A78120210438A7812041043C978090613
:1019F00008430F49C8620D4920310A7810464A78D9
:101A0000120210438A7812041043C9780906084369
:101A100007498862054802F0E7F905490863084666
:101A2000006B04490968086010BD00007C0A0010C2
:101A3000480A0010E00000100120014908707047BA
:101A4000480A001030B504460D46002229462046BB
:101A500000F05AFA30BD000002469000034B1B58BC
:101A6000012088408000185870470000245400006E
:101A700000B52D480068402108432B4908602B48D9
:101A8000406BC008C000294948630846406B0121EB
:101A90000843264948630846806BC008C000886335
:101AA0000846806B01210843204988630846C06BC3
:101AB000C008C000C8630846C06B012108431B4929
:101AC000C8631A4840300068C008C0001749403158
:101AD0000860084600680121084314494031086045
:101AE000881512494039086348631148806801210C
:101AF000C903401800683721890188430C49896867
:101B00000122D2038918086000220A21012000F076
:101B1000E9F800220B21012000F0E4F80022022164
:101B2000012000F0DFF800BD808004404040044008
:101B300024540000002806D001280CD0022812D01E
:101B4000032820D117E0114AD26901238B401A43A0
:101B50000E4BDA6118E00E4AD26901238B401A431A
:101B60000B4BDA6110E00B4AD26901238B401A4318
:101B7000084BDA6108E0084AD26901238B401A4316
:101B8000054BDA6100E000BF00BF704700800050E5
:101B9000008001500080025000800350002806D0D1
:101BA00001280CD0022812D0032820D117E0114AB6
:101BB000126901238B409A430E4B1A6118E00E4ABA
:101BC000126901238B409A430B4B1A6110E00B4AB8
:101BD000126901238B409A43084B1A6108E0084AB6
:101BE000136901228A409343054A136100E000BF54
:101BF00000BF7047008000500080015000800250FC
:101C000000800350002806D001280CD0022812D0F2
:101C1000032820D117E0114A126901238B401A438F
:101C20000E4B1A6118E00E4A126901238B401A43C9
:101C30000B4B1A6110E00B4A126901238B401A43C7
:101C4000084B1A6108E0084A126901238B401A43C5
:101C5000054B1A6100E000BF00BF704700800050D4
:101C600000800150008002500080035010B50246F1
:101C70000020002A06D0012A0DD0022A14D0032AFF
:101C800024D11AE0134B9B6901248C402340002B84
:101C900000D001201BE0104B9B6901248C402340A5
:101CA000002B00D0012012E00C4B9B6901248C40DA
:101CB0002340002B00D0012009E0094B9B6901243F
:101CC0008C402340002B00D0012000E000BF00BF6B
:101CD00010BD0000008000500080015000800250C4
:101CE0000080035030B5002A11D08300114CE35816
:101CF0000124E4031B191B6801248C402343840046
:101D00000C4D2C590125ED036419236010E083006C
:101D1000084CE3580124E4031B191B6801248C4080
:101D2000A3438400034D2C590125ED03641923605E
:101D300030BD00002454000070B5049C002806D07B
:101D4000012838D002286AD003287BD19CE0002AE1
:101D500018D1694D6D6801268E40B543664E756099
:101D6000002B07D13546AD6801268E40B543624E43
:101D7000B5600EE0604DAD6801268E4035435E4E85
:101D8000B56006E05C4D6D6801268E4035435A4EC5
:101D90007560002C07D1584DED6801268E40B54383
:101DA000554EF56006E0544DED6801268E403543F2
:101DB000514EF5609DE0002A18D1504D6D68012606
:101DC0008E40B5434D4E7560002B07D13546AD684A
:101DD00001268E40B543494EB5600EE0474DAD68D3
:101DE00001268E403543454EB56006E0434D6D6893
:101DF00001268E403543414E7560002C07D13F4D82
:101E0000ED6801268E40B5433C4EF56006E03B4D43
:101E1000ED6801268E403543384EF56069E0002AB2
:101E200019D1374D6D6801268E40B543344E75602B
:101E3000002B08D13546AD6801268E40B543304EA3
:101E4000B5600FE054E02E4DAD6801268E4035435D
:101E50002B4EB56006E02A4D6D6801268E40354355
:101E6000274E7560002C07D1254DED6801268E4068
:101E7000B543234EF56006E0214DED6801268E4006
:101E800035431F4EF56034E0002A18D11D4D6D68B2
:101E900001268E40B5431B4E7560002B07D1354699
:101EA000AD6801268E40B543164EB5600EE0154D67
:101EB000AD6801268E403543124EB56006E0114DE7
:101EC0006D6801268E4035430E4E7560002C07D19B
:101ED0000C4DED6801268E40B5430A4EF56006E0D4
:101EE000084DED6801268E403543064EF56000E052
:101EF00000BF00BF70BD0000008000500080015096
:101F0000008002500080035030B513468B4084009F
:101F1000034D2D5901248C40A4002B5130BD0000ED
:101F200024540000F3B591B00E4601250120109015
:101F300000200E9003900290142109A8FEF7EDFAFC
:101F400001F00CF8B048007820210840002803D1A7
:101F5000102701F0B3F800E0012709ACB010401CD5
:101F6000401005908F20A9490870912048703D20AD
:101F70008870A5480078487101208871A2480078CF
:101F800010210840002812D00598001D0490A04898
:101F900000789E49C87108460672002E04DD09309B
:101FA000059A1199FEF75AFA092003900DE0059859
:101FB000C01C04909548C671002E04DD0830059AB7
:101FC0001199FEF74BFA0820039004980004000EC4
:101FD0008E49C87004980007000E087101F086FA57
:101FE00000210320FFF7A6FD00210320FFF70AFED2
:101FF000039A05988018C1B2844801F0D9F90120EC
:10200000844908700020844908707D21C9008348F4
:102010000068FEF784FA14214843019000F0B4FDF3
:1020200000BF7D4800780028FBD0012010907EE0A2
:1020300001207B4908700020774908707D21C90084
:1020400076480068FEF76BFA1E214843019000F0C5
:102050009BFD00BF704800780028FBD00CE0029880
:10206000401C80B202906F490298884204D100203F
:10207000684908706C490870664800780128EED0FD
:102080000F2008A9087701210FA801F0F1F9614894
:10209000007800282ED002280AD0FF282BD1082251
:1020A0005A49C91C6148FEF7D9F901200E9023E076
:1020B000102F03D1641C109820701AE0002056499C
:1020C0000870594908700120554908700020584986
:1020D000087001205749087001F058F956494F48D7
:1020E0000068FEF71CFA7D21C90048430190FEF705
:1020F00041F801E000E000BF00BF01F0EBF9102F54
:102100000CD101F009FA1098102804DA01F0F8F95E
:1021100001F00EFA05E000F0B9FF02E001F0FCF971
:1021200009E0444800781098401CC0B21090109804
:10213000B84200DC7CE700BF3D480078002800D1B1
:1021400000BF102F4BD1301DC0B2069006988010F2
:10215000401C4010059038E02078401E207000257B
:1021600005E01198405D07A94855681CC5B2082DC7
:10217000F7DB042106980840002804D120780007E6
:10218000000E20700CE0072505E0681E07A9085C1A
:102190004855681EC5B2002DF7DC00206946087757
:1021A0006946087F217808436946087722491B4819
:1021B0000068FEF7B4F9214948430190FDF7DAFFC2
:1021C00007A80699FFF7AEFE641E2078002806D007
:1021D00006983D2803DA08A8007D1028BCD100210C
:1021E0000320FFF7A7FC00210320FFF7D7FC1449C9
:1021F0000E9808700E98002803D108210B48FEF7AE
:102200008AF913B0F0BD00000200001010040010A5
:102210000100001008010010090100104C0000101E
:102220000B010010F0FF00000A0100100400001074
:102230000C0100100D01001000127A0010270000A0
:102240000300001010B5022001F0B4F90D490E484A
:102250000068FEF764F97D21C90048430446FDF794
:1022600089FF2620094908700020094908750021C6
:1022700007481430FFF756FE01F038F9054800789A
:1022800010BD000000127A004C0000100200001087
:102290001004001003000010FEB505460C4616465B
:1022A0001F46002001908F204749087091204870F8
:1022B0003D2088700020C870C0200871222048711D
:1022C00023208871082231463F48C01DFEF7C6F81A
:1022D0003D48C573601E3C49087401F007F90021B0
:1022E0000320FFF727FC00210320FFF78BFC1121BF
:1022F000354801F05DF80020344908707D21C9009F
:1023000033480068FEF70BF914214843009000F0B1
:102310003BFC00BF2D4800780028FBD000202B4953
:1023200008707D21C9002A480068FEF7F8F80A21E4
:102330004843009000F028FC00BF244800780028A3
:10234000FBD0002023490870204908707D21C90076
:102350001F480068FEF7E3F81E214843009000F094
:1023600013FC00BF194800780028FBD00CE001984E
:10237000401C019018490198884205D10020174956
:102380000870012016490870144800780128EED022
:1023900000210320FFF702FC01F0A8F80F480078A5
:1023A000FF280ED108480078002807D1A20006496E
:1023B000491C3846FEF752F80020FEBD024840781E
:1023C000FBE7FF20F9E700001004001009010010EE
:1023D0004C0000100B010010F0FF0000080100107D
:1023E0000A010010F7B50446154600268F2044491F
:1023F0000870912048703D2088700020C870B0207F
:102400000871222048712020887108223C48C01D94
:102410000199FEF723F83A48C47301F067F80021E8
:102420000320FFF787FB00210320FFF7EBFB1021C0
:10243000334800F0BDFF0020324908707D21C900FB
:1024400031480068FEF76BF814214843074600F056
:102450009BFB00BF2B4800780028FBD000202949B7
:1024600008707D21C90028480068FEF758F80A2145
:102470004843074600F088FB00BF22480078002848
:10248000FBD00020214908701E4908707D21C90039
:102490001D480068FEF743F81E214843074600F038
:1024A00073FB00BF174800780028FBD009E0761CBA
:1024B0001748864205D100201649087001201649A8
:1024C0000870144800780128F1D000210320FFF79C
:1024D00065FB01F00BF80F480078FF280ED1084883
:1024E0000078002807D104220549491C2846FDF739
:1024F000B5FF0020FEBD02484078FBE7FF20F9E76A
:1025000010040010090100104C0000100B01001015
:10251000F0FF0000080100100A010010C206D20EF0
:1025200001219140014A11607047000080E100E004
:10253000C206D20E01219140014A1160704700008D
:1025400000E100E0C206D20E01219140014A116073
:102550007047000000E100E010B5002819DA1A4ABF
:1025600003071B0F083B9B089B00D2588307DC0E18
:10257000FF23A3409A438B071B0E8407E40EA3405E
:102580001A43114B0407240F083CA408A4001A5155
:1025900018E00E4A03231B02D21883089B00D2586E
:1025A0008307DC0EFF23A3409A438B071B0E84078F
:1025B000E40EA3401A43054B032424021B1984088C
:1025C000A4001A5110BD00001CED00E000E100E085
:1025D00008B502200F4908700F4800690F490840EC
:1025E0000D49086100BF00210320FFF7A3FA6846E8
:1025F00000F02EFF68460078A02800D108E0684669
:1026000000F074FD00210320FFF730FB0028EAD121
:1026100000BF08BD0901001000E000E0FEFF00005F
:1026200070B50446002002F0C1FB012002F0BEFBA1
:102630001520FFF773FF0D20FFF770FF2548006896
:1026400001210903884323490860084600680121E5
:10265000490488431F49086000201E494039086327
:1026600001204863002048630120486300BF1948E7
:102670004038406BC007C00F0028F8D00122042169
:102680000020FFF72FFB012204210020FFF73CFC74
:10269000114912480068FDF742FFC821484305462A
:1026A000FDF768FD012203210020FFF71BFB002C32
:1026B00001D1012000E00020024603210020FFF7A5
:1026C00023FC39200649086006490548064A126875
:1026D000904770BD8080044000127A004C000010CA
:1026E0008411001098110010480000101149C869A9
:1026F000C107C90F002907D00F490968491C0E4AB4
:10270000116001210B4A116202210140002907D00A
:102710000A490968491C094A11600221054A1162E7
:1027200004210140002904D005490968491C044AD4
:1027300011607047000004402400001028000010C1
:10274000200000101149C869C107C90F002907D02E
:102750000F490968491C0E4A116001210B4A116298
:1027600002210140002907D00A490968491C094A89
:1027700011600221054A116204210140002904D0A0
:1027800005490968491C044A1160704700800540EA
:1027900030000010340000102C00001070B504460A
:1027A000002C07D100220B4801680B480068FFF796
:1027B000ABFB06E000220948016809480068FFF702
:1027C000A3FB084908480068FDF7A9FE0546FDF788
:1027D000D1FC70BD40000010380000104400001013
:1027E0003C00001000127A004C00001070B5044646
:1027F0000C490D480068FDF792FE0546FDF7BAFC4E
:10280000002C07D101220948016809480068FFF738
:102810007BFB06E001220748016807480068FFF7D4
:1028200073FB70BD00127A004C00001040000010D5
:1028300038000010440000103C000010002835D182
:102840003C494968012211433A4A51603949803173
:102850000968D2141143374A803211600121516155
:102860003549096AC908C900334A11621146096A23
:1028700001221143304A11621146496AC908C90050
:1028800051621146496A012211432B4A51620221C9
:10289000294A40321163284AD160264980310968AB
:1028A00040221143234A8032116042E021494968A5
:1028B000042211431F4A51601E49803109680122D8
:1028C000920411431B4A803211600121D1611A49DF
:1028D000C969C908C900184AD1611146C9690222EB
:1028E0001143154AD16114494031C968C908C9006A
:1028F000114A4032D1601146C968022211430E4A82
:102900004032D1600C494039896AC908C9000A4A75
:10291000403A91621146896A02221143064A403ABE
:10292000916204498031096840221143014A803292
:10293000116070470080044040400440FFB583B000
:102940000F4615461E4602980290F807000E022117
:102950003940490108430190012231462846FFF7DA
:10296000C1F9039800281DD11E4805601E48066065
:102970001E49019808431E4908600220086100248E
:1029800005E01B488068C0B20290601CC4B2082CED
:10299000F7DB1420FFF7CCFD022015494860032027
:1029A00048611CE013480560134806600F49019810
:1029B00008431249086004200861002405E00F481C
:1029C0008068C0B20290601CC4B2082CF7DB0E20F5
:1029D000FFF7AEFD0220094948600320486107B0B7
:1029E000F0BD000038000010400000100705000096
:1029F000000004403C00001044000010008005402E
:102A000000280FD1002906D10E4A126880239A436C
:102A10000C4B1A6015E00B4A126880231A43094BCD
:102A20001A600EE0002906D1074A126880239A43F3
:102A3000054B1A6005E0044A126880231A43024BD2
:102A40001A607047000004400080054070B50646DB
:102A50000C4615462B4622460021304600F00CF865
:102A600070BD70B505460E46144623460022314619
:102A7000284600F001F870BDF0B500BF002439E031
:102A800000281BD1002904D00E781C4FBE60491CC1
:102A900002E00026194FBE6000BF184EF6681427EA
:102AA0003E40042EF9D1002A04D0144EB6681670A8
:102AB000521C1EE0114EB668F5B21AE0002904D08F
:102AC0000E780F4FBE60491C02E000260C4FBE601E
:102AD00000BF0B4EF66814273E40042EF9D1002AA1
:102AE00004D0074EB6681670521C02E0044EB66859
:102AF000F5B2641C9C42C3D3F0BD0000000004404A
:102B00000080054010B5012002F050F900BF1848C0
:102B100000780028FBD100BF12E016490968097847
:102B2000012282401140002900D008E08100124AB1
:102B3000515809698200114B9A58116000BF401C1E
:102B40000428EADB00200E49096808600D49086086
:102B50000A4810220168104601F06CFD012002F0C5
:102B6000CDFA012002F030F9FEF766FF10BD00003B
:102B700034010010DC000010C0030010D00300106E
:102B8000E00000101401001010B50446601E094951
:102B9000884201D9012010BD601E07494861032108
:102BA000081FFFF7D9FC002003498861072008614E
:102BB0000020F0E7FFFFFF0000E000E008B510484C
:102BC0000069104908400E49086102200E4908704A
:102BD000684600F03DFC68460178F72001406846F1
:102BE00001700078002803D068460078802803D15F
:102BF00000200649087002E001200449087008BD61
:102C000000E000E0FEFF00000901001008010010D4
:102C100010B500245A48406AC005000F030002F0B6
:102C2000B7F810090B0D0F11131517191B1D1F21D4
:102C30002325272900241DE0524C1BE0524C19E0AB
:102C4000524C17E0524C15E0524C13E0524C11E03C
:102C5000524C0FE0524C0DE0524C0BE0524C09E04C
:102C6000524C07E0524C05E0524C03E0524C01E05C
:102C7000524C00BF00BF4248406AC006800E811C13
:102C80002046FDF74CFC04463D484030006B800771
:102C9000800F002806D0012808D0022823D003285E
:102CA00063D123E04648474908605EE0344840303D
:102CB00000688007800F002806D0012808D002286D
:102CC0000AD003280DD108E03D483E49086008E0DD
:102CD0003B483C49086004E000BF002039490860D7
:102CE00000BF00BF41E0374804603EE02448403068
:102CF00000688007800F002806D0012819D002281C
:102D00002CD003282FD12AE01D488068FF21813173
:102D10000840002803D02A482A49086008E01848DB
:102D20008068C006C00E401C2549484325490860FC
:102D300019E013488068FF2181310840002803D042
:102D40001F482049086008E00D488068C006C00E92
:102D5000401C1B4948431B49086004E000BF002099
:102D60001849086000BF00BF00BF00BF04484030E2
:102D7000816B14480068FDF7D2FB1249086010BD52
:102D80000080044020A1070000350C00E0C81000BE
:102D9000C05C1500006A180040771B0080841E008C
:102DA000C0912100009F240040AC2700E0322900A0
:102DB00020402C00604D2F0000D4300040E1330053
:102DC000001BB7004C0000100A88002A18D18A782E
:102DD000002A02D0012A12D108E00A6952781202B0
:102DE0000B691B781A43074B1A8008E00A6952786E
:102DF00012020B691B781A43034B1A8000BF00BFF5
:102E000070470000720100107401001008B52948D5
:102E1000806B202188432749886300202649086267
:102E2000009003E000BF0098401C00900098C82864
:102E3000F8D30120204940310860486000204860F4
:102E40000120486000BF1C4840304068C007C00FE8
:102E50000028F8D02320184988601648806B80210C
:102E600088431449886300BF1348C068C007C00F77
:102E70000028F9D00320104940310863012048633D
:102E8000002048630120486300BF0B484030406B7E
:102E9000C007C00F0028F8D00120074940318863DF
:102EA0000548803000680121090408430249803147
:102EB000086008BD008204400080044010B51A4834
:102EC0000068C007C00F00282DD0012016490860F7
:102ED00016480068401C154908601548007800280D
:102EE0000DD1144801680068401C124A1060C829BE
:102EF00005D301200E4908700020114608600E48D5
:102F0000007800280FD10D4801680068401C0B4A6A
:102F100010600B480088814205D3002011460860EC
:102F20000520FEF71DF810BD0040014030010010E3
:102F30002901001044010010280100104001001078
:102F40007201001004480068C007C00F002802D0BA
:102F50000120014908607047008001401CB5012133
:102F6000684601714171401D00F082FA07216846F0
:102F700001704079022807DB68464079042803D0B5
:102F800068464079052803D130206946487002E040
:102F90001420694648700221684600F0D5FB1CBD2C
:102FA00038B5012021490870002211460320FEF7A0
:102FB00099FE012000231A46194600900320FEF7CF
:102FC000BBFE012200210220FEF78CFE012200211F
:102FD0000220FEF799FF012203210846FEF782FE38
:102FE000002203210846FEF78FFF1C2001218140AB
:102FF0000F4A116000BF0120FFF720FC00230222CE
:1030000019460120FFF79AFC012203210846FEF72A
:103010007BFF084908480068FDF781FA7D21C90057
:1030200048430446FDF7A6F838BD00000C00001028
:1030300000E100E000127A004C00001070B5044678
:103040000D462078802108432070FF2060700E48D4
:103050000078FFF7A3FB00210B480078FFF7D0FCB6
:10306000002D06D00222214607480078FFF7F9FC20
:1030700005E00122214604480078FFF7F2FC0248EF
:103080000078FFF7B3FB70BD0C00001010B50D21E8
:103090000948017241720121093000F0E9F906483E
:1030A000407AFE2108400449487202210248083053
:1030B00000F04AFB10BD00003004001010B50D21D7
:1030C0000948017241720121093000F0D1F9064826
:1030D000407A01210843044948720221024808301D
:1030E00000F032FB10BD00003004001070B5044643
:1030F0002078A02803D100209F49087039E120786A
:10310000802805D100209C49087000F0E3F930E1E7
:1031100020780221084002280CD19749087000F05D
:10312000FBF900F0D7F900F0E1F900210320FEF7E8
:1031300001FD1EE1207840284BD1904800780228FC
:1031400002D18D49087070BD1C20207001212046DD
:1031500000F08EF920780007000F401C20701F201F
:103160008749884A0023D356C8542178844A854B1E
:1031700000255D57501900F035F92078814909780C
:10318000401840B27F4908701E202070012120465F
:1031900000F028F92078C007C00F002813D020784D
:1031A0000007400F207020780821081A2070754A07
:1031B00000215156491E724A881801782378FF224F
:1031C0009A401140017000F085F9FF206A490870AB
:1031D000CFE02078602878D10120674908701F204F
:1031E0006749684A0023D356C8540023D356C818E9
:1031F000092100F0F7F863480078093040B26149CE
:103200000870204600F024F900210320FEF724FC7A
:10321000002853D000210320FEF78CFC20784028A2
:1032200044D11C2020700121204600F021F9207893
:10323000401C0007000F20701F205149514A0023F5
:10324000D356C85421784E4A4E4B00255D5750192D
:1032500000F0C8F820784B490978401840B2494935
:1032600008701E2020700121204600F001F920780E
:10327000C007C00F002813D020780007400F20702F
:1032800020780821081A20703E4A00215156491E14
:103290003B4A881801782378FF229A401140017038
:1032A000FF203549087000F015F962E020785028B9
:1032B0005FD10220304908705BE006E020780028EA
:1032C00057D1FF202C49087053E020781021084086
:1032D000102823D1207820210840202805D1012062
:1032E00025490870022025490870207840210840AF
:1032F00040280FD11F212248C0300172012108301F
:1033000000F070F800F0E6F802201B4908701B4935
:1033100008702EE00220184908702AE02078042165
:10332000084004280FD1207820210840202806D109
:1033300001201149087002201049087019E002208C
:103340000D49087015E02078012803D100200A49B2
:1033500008700EE00C48007802200749087000F061
:10336000DBF800F0B7F800F0C1F800210320FEF709
:10337000E1FB00BFE7E60000080100100A010010B1
:10338000100400100B0100100D0100101CB50021ED
:10339000684601704170092181702121C1700B21A3
:1033A000017103214171062100F0CEF91CBD00001E
:1033B00070B504460D460A480078FFF7EFF9002182
:1033C00007480078FFF71CFB2A462146044800788E
:1033D000FFF747FB02480078FFF708FA70BD0000CE
:1033E0000C00001070B504460D46002D00D170BDD4
:1033F0002078C006C00E207020784021084320703D
:10340000012D03DD20782021084320700F4800782B
:10341000FFF7C4F900210D480078FFF7F1FA012207
:1034200021460A480078FFF71CFB01210748007875
:10343000FFF7E6FA2A46214604480078FFF706FB24
:1034400002480078FFF7D2F900BFD0E70C00001067
:1034500010B504460C2020700D206070022120461B
:10346000FFF7C0FF20780149087010BD1000001060
:1034700070B505460E4616480078FFF78FF9002410
:103480001EE0285DC006C00E2855285D4021084377
:10349000285500210E480078FFF7B2FA29190122B9
:1034A0000B480078FFF7DDFA012109480078FFF7A3
:1034B000A7FA2919012206480078FFF7C7FA641C09
:1034C000B442DEDB02480078FFF790F970BD0000DF
:1034D0000C00001010B50F200349087001210248AC
:1034E000FFF7ACFD10BD00000D00001008B50C2169
:1034F000684601700D2141700221FFF773FF08BD7E
:1035000010B517200349087001210248FFF796FD06
:1035100010BD00000D00001010B516200349087002
:1035200001210248FFF78AFD10BD00000D000010C8
:1035300010B514200349087001210248FFF77EFDF1
:1035400010BD00000D00001010B5002009490870E2
:10355000487001210748401CFFF78AFF0548407862
:10356000C006C00E034948700221024800F0ECF882
:1035700010BD00000D00001010B500200C490870AF
:10358000487001210A48401CFFF772FF0848407844
:103590008006800E0649487008464078202108437E
:1035A000034948700221024800F0CEF810BD000027
:1035B0000D00001038B504460121684601704470C2
:1035C00041782020814368464170022100F0BCF818
:1035D000E406E40E0D21684601703E21417002218F
:1035E00000F0B2F80C2C08DA09216846017021219C
:1035F0004170022100F0A8F807E009216846017037
:1036000020214170022100F09FF8082C4FDA06219A
:103610006846017080214170022100F095F8022C6B
:1036200003DB042C01D0052C08D10721684601706A
:1036300030214170022100F087F807E00721684639
:10364000017014214170022100F07EF808216846C3
:1036500001701F214170022100F076F80A216846AE
:10366000017041700121401CFFF702FF684640785D
:103670000107090F684641704178402001436846C0
:103680004170022100F060F810216846017041701D
:103690000121401CFFF7ECFE6846407810210843EA
:1036A000694648700221684600F04EF84AE00C2C4A
:1036B00008DA06216846017020214170022100F0DD
:1036C00043F807E00621684601700021417002219D
:1036D00000F03AF80721684601700E21417002217E
:1036E00000F032F80821684601700721417002217C
:1036F00000F02AF80A216846017041700121401C3F
:10370000FFF7B6FE684640780107090F684641702A
:1037100041782020014368464170022100F014F8EE
:1037200010216846017041700121401CFFF7A0FE86
:1037300068464078102188436946487002216846EF
:1037400000F002F838BD000070B505460E460024B2
:103750000E480078FFF722F800210C480078FFF7A8
:103760004FF90CE0285DC006C00E2855285D28558D
:103770002919022205480078FFF773F9A41CB44206
:10378000F0DB02480078FFF731F870BD0C00001044
:103790007FB504460020344908601520012181408E
:1037A000324A116000BF3248406AC008C000304948
:1037B00048620846406A012108432D49486208468C
:1037C000806AC008C00088620846806A01210843F8
:1037D00027498862274800680121090308432549D1
:1037E00008600120886183202349C86021488569D9
:1037F000294622480068FCF792FE064601A802AB63
:1038000003AA214600903046FDF72DFB0398000ADD
:10381000194948600398C0B20860019800010299F4
:103820000843154988620320C8600720886008465D
:10383000456900BF10484069602108406028F9D1FF
:1038400001E00D4805680C484069C007C00F00281A
:10385000F7D1152001218140044A803A116000BF50
:103860000520054948607FBD1C00001080E100E094
:103870008040044080800440008000404C000010E4
:1038800018B5024600BF2B4B5B6920242340002B58
:10389000F9D0EE246B461C7059700C129C701C7889
:1038A0005B78E4186B469B78E318DCB26B46DC70FF
:1038B00000200EE000BF1F4B5B6920242340002B3B
:1038C000F9D06B461B5C1B4C236000231A4C237001
:1038D000401C0328EED3002014E06B46DB78145C18
:1038E0001B19DCB26B46DC7000BF124B5B692024F5
:1038F0002340002BF9D0135C0E4C236000230E4CA8
:103900002370401C8842E8D300BF0A4B5B69202427
:103910002340002BF9D06B46DB78064C2360002354
:10392000054C237000BF034B5B6920242340002B10
:10393000F9D018BD008000401800001070B500BF1D
:103940002F4A9268D0B240104007400F032824D17C
:103950002B4A5269D1B29E220A40002A05D0294A38
:103960001160274A1268D3B270BDCA07D20F002A6D
:1039700043D0234C2468E5B2234C2268541C224EC9
:103980003460224CA5543246126803242402A24219
:1039900033D10022344622602FE0022813D1184C84
:1039A0002468E5B2184C2268541C174E3460174C3A
:1039B000A5543246126803242402A2421DD10022DB
:1039C0003446226019E0062807D10E4A1268FF2407
:1039D000013422430B4C22600FE001280DD1084A2C
:1039E0005269D1B220220A40002A03D00122084C99
:1039F000227002E00022064C227000BFB4E70000F3
:103A000000800040140000101C000010A00A0010EC
:103A10001800001010B512220249100100F0C6FD76
:103A2000004810BD7C0A001010B504461222214641
:103A30000448FCF713FD12220249100100F0FAFDC0
:103A400010BD00007C0A001070B5FFF795FD5E49BF
:103A50005E480068FCF763FD7D2109014843064686
:103A6000FCF788FBFEF7EEFB002873D000205849D6
:103A70000860082257495848FCF7A0FC00286AD083
:103A8000082255495348FCF7E9FC0822524953489B
:103A9000FCF7E4FC002400BF514A4F490020FEF728
:103AA000A1FC0546484949480068FCF738FD7D21DE
:103AB000C90048430646FCF75DFB002D04D0601C9E
:103AC000C0B204460A28E7DB0A2C0CDB002045497B
:103AD000096808703F4800210160416018213F4893
:103AE0001038FCF71AFD04223D49091F081DFCF798
:103AF00065FC002830D102203A490968087000248A
:103B000000BF364B103B344A04210120FEF7C4FBB2
:103B10002D492E480068FCF702FD7D21C90048436D
:103B20000646FCF727FB002D04D0601CC0B20446FB
:103B30000A28E6DB0A2C17DB00202A4909680870EE
:103B40002448002101604160182124481038FCF706
:103B5000E4FC09E00BE029E0012022490968087033
:103B6000002021490968086000F0DCF81EE01848D0
:103B70000068401C164908600F2817D90F200860FC
:103B8000184800680078002810D0002015490968FE
:103B90000870104800210160416018210F4810385A
:103BA000FCF7BBFC00F0BEF8FEF7ACFFFFF7CCFC67
:103BB000054906480068FCF7B2FC7D21090148432D
:103BC0000646FCF7D7FA70BD00127A004C000010D0
:103BD0005C0100105401001004000010E00100100E
:103BE000B0080010C8000010C4000010064800888B
:103BF000002808DD05480078FF2804D10120044989
:103C000008700449087070470E0100103C05001050
:103C1000C00000102A01001000B56BE039480168AF
:103C20000068401C374B18603748425C18460068F3
:103C300003210902884202D3002019460860334854
:103C40000078002806D0012812D002282FD003289F
:103C50004ED143E0AA2A0AD101202C490870002045
:103C60002B4908802B490880AA202B4908703FE087
:103C70002948007880182849087025480078C10034
:103C80001046884023490988084322490880204873
:103C90000088401C1E49088008460088022805DB71
:103CA00002201A49087000201949088020E01A48AB
:103CB0000078801818490870154801880088401C51
:103CC000134B18801548425418460088114909883A
:103CD000884202DB03200D49087009E00E48007895
:103CE000824201D1FFF782FF00200849087000BF1F
:103CF00000BF00BF034800680949096888428DD1A8
:103D000000BD000050010010A00A00104901001081
:103D10004C0100100E0100104A0100103C0500107B
:103D20001C00001070B5002027490860002423E023
:103D30002648006800780121A1400840002800D0F2
:103D400019E0A100224A51580868410049080D466F
:103D50002049284601F0CAFA0CD21F490968088890
:103D6000FCF730FE054618480168284601F0F6F9D0
:103D70001549086000BF641C042CD9DB00211248DF
:103D8000006801F0B3FA1AD21449096808680021E2
:103D900001F0ACFA13D21248006801680A480068C2
:103DA00001F0D0FA05460D48006801682846FCF786
:103DB000EFFC0446FCF79CFD0A49086002E0002085
:103DC0000849086070BD000000010010DC00001010
:103DD000E0030010BD378635D8000010CC0000107D
:103DE000C40000100401001070B501468A1C0C23A9
:103DF000D3181C7822465C78240222439C78240441
:103E00002243DB781B061A43002A55D04C79224600
:103E10008C7924022243CC79240422430B7A1B069A
:103E20001A438B1C10241C1925782B4665782D020B
:103E30002B43A5782D042B43E478240623435A43CF
:103E40008B1C0C241C1925782B4665782D022B43DE
:103E5000A5782D042B43E4782406234314465C43C1
:103E60008A1C0C23D3181D782A465D782D022A431C
:103E70009D782D042A43DB781B061A43CE7D3346FA
:103E80000E7E360233434E7E360433438D7E2D063E
:103E90002B435A43A3180A461432082414192578D0
:103EA0002A4665782D022A43A5782D042A43E47812
:103EB00024062243981829E04C7922468C79240262
:103EC0002243CC79240422430B7A1B061A438B1C11
:103ED00010241C1925782B4665782D022B43A578D4
:103EE0002D042B43E4782406234353430A4614321B
:103EF0000824141925782A4665782D022A43A578C6
:103F00002D042A43E47824062243981870BD00004B
:103F1000F0B599B00546E04800680021415E0029EF
:103F200005DCDE4800680021415E002901DD19B092
:103F3000F0BDDB4909680868DA4901F055F900D895
:103F4000F5E7D94800680068D8490968884201D176
:103F5000002D7DD0D44800680068D449086046230D
:103F6000FF227A32AA21002000F0B2FD0023FF22B6
:103F70001946184600F032FECD480078012813D1CA
:103F8000CB48407A012807D1FF239B05AA220021B4
:103F9000C8A000F01BFD12E0FF239B05AA22002110
:103FA000C5A000F013FD0AE0C148407A012806D1FF
:103FB000FF239B05AA220021C0A000F007FD0023DB
:103FC0001A46FF21184600F009FEFF239B05AA228E
:103FD0000F21B648006800F053FD202111A8FCF71E
:103FE0009CFA0024402101A8FCF797FAB04912314D
:103FF0000A7810464A78120210438A781204104355
:10400000C9780906084300280ED1A94917310A7852
:1040100010464A78120210438A7812041043C97875
:104020000906084300287DD02822A5A111A8FCF785
:10403000DBF811A8FCF7F0F9C4B29D4917310A78F2
:1040400010464A78120210438A781204104300E0A6
:1040500020E1C9780906084300287DD0944912312F
:104060000A7810464A78120210438A7812041043E4
:10407000C9780906084300285AD08D490E310A78BC
:1040800010464A78120210438A7812041043C97805
:1040900009060843864E761D0090377839467778B2
:1040A0003F023943B7783F043943F6783606314347
:1040B0000B467F4E12363778394677783F023943C0
:1040C000B7783F043943F678360631430A4611A9DA
:1040D00008197CA1FCF788F811A8FCF79DF9C4B277
:1040E000734E0E363778394677783F023943B778C2
:1040F0003F043943F678360631430B466C4E17368B
:104100003778394677783F023943B7783F043943E7
:10411000F678360631430A4611A908196CA1FCF756
:1041200063F800E09AE011A8FCF776F9C4B269E000
:104130005F4E0E363778394677783F023943B77885
:104140003F043943F678360631430B46584E17364E
:1041500037783946777800E012E03F023943B77884
:104160003F043943F678360631430A4611A9081947
:1041700059A1FCF739F811A8FCF74EF9C4B241E097
:104180004B4912310A7810464A78120210438A7855
:1041900012041043C97809060843002832D0444964
:1041A0000E310A7810464A78120210438A781204B7
:1041B0001043C978090608433D4E761D00903778B4
:1041C000394677783F023943B7783F043943F67868
:1041D000360631430B46364E1236377839467778F5
:1041E0003F023943B7783F043943F6783606314306
:1041F0000A4611A9081933A1FBF7F6FF11A8FCF72D
:104200000BF9C4B22A491C310A7810464A781202C6
:1042100010438A7812041043C9780906084300281D
:1042200016D0234B1C331E7831465E78360231435C
:104230009E7836043143DB781B0619430A4611A9E0
:10424000081927A1FBF7D0FF11A8FCF7E5F8C4B2C5
:1042500011A9081929221AA1FBF7C6FF11A8FCF71A
:10426000DBF80646324611A901A8FCF77FF811A831
:10427000FCF7D2F886B21B48B9239622314600904B
:1042800001A800F0D7FB0023FF221146104600F0E2
:10429000A5FC00BF00BF4AE6E8000010EC000010DB
:1042A000CC000010CDCCCC3DE00000103C01001053
:1042B0007C0A00103A000000600000002E000000A0
:1042C0002563000025642A25642A25640000000077
:1042D0002B25642A2564000025642A25640000003B
:1042E0002B256400CDCC4C3F70B53F48806807213A
:1042F0000902401800688004050E3B4880680321CD
:10430000090340180068C0092843C5B20A210120EA
:10431000FDF7A2FB002801D0202005430B2101203E
:10432000FDF79AFB002801D040200543FF20013013
:1043300028432E490880012149022D48FCF7EDF859
:10434000EE202B490870481C2A49086000241DE013
:10435000A100274830300818A100274A5050A1007A
:10436000234840300818A100244A5050A10020489A
:1043700060300818A100224A5050A1001C4880302B
:104380000818A1001F4A5050601CC4B2042CDFDB87
:104390001748A0301C490860001D1C4908604C38B3
:1043A0001B490860001D1B490860801C1A490860F1
:1043B00012301A490860001D19490860001D19498A
:1043C0000860801C18490860801C184908602C305F
:1043D00017490860401C17490860193816490860D9
:1043E00080381649086070BD145400007001001038
:1043F000C0010010C8000010D0030010E00300103E
:10440000F003001000040010CC000010D0000010D9
:10441000D4000010D8000010DC000010E0000010F4
:10442000E4000010E8000010EC000010F0000010A4
:10443000F8000010FC000010F4000010C400001090
:1044400038B504226946002000F0B0F836490098DB
:10445000884231D130223549102000F0A7F80024DD
:1044600015E0A100324A51580868324900F0E6FED2
:10447000A1002F4A51580860A0002F490858006831
:1044800080004042A1002C4A51580860641C042C52
:10449000E7DB274810220168202000F0CBF82648EF
:1044A00010220168104600F0C5F82448009004224C
:1044B0006946002000F0BEF820490098884220D1CB
:1044C00030221A49102000F071F819221749603182
:1044D000802000F06BF81A48006800784006400E13
:1044E00017490968087016480068007800281ADD26
:1044F0001348006802780D497931992000F056F888
:1045000011E00E48009004226946002000F092F865
:1045100030220649102000F08DF81922034960313D
:10452000802000F087F838BDAAABACADF0010010D8
:10453000E0030010000080C0D0030010ADACABAAB7
:10454000F800001038B50446012000230222194665
:104550000090124800F0C3F80320002304221946FB
:1045600000900F4800F0BBF8002001231A461946BE
:1045700000900C4800F0B3F80420012305221946EE
:104580000090094800F0ABF80448206004486060DF
:104590000448A0600448E06038BD0000CC0800106A
:1045A000E0080010F40800100809001037B582B0C8
:1045B0000C4615460723002211461046FEF7BEF9A9
:1045C0000020FEF7EBF869460889FF210131084019
:1045D0004011032108430190012201A90020FEF7A8
:1045E00040FA012202A90020FEF73BFA2A462146A2
:1045F0000020FEF72BFA0020FEF7F8F805B030BDDA
:1046000038B504460723002211461046FEF796F9F6
:10461000002C01D0062000E0042000900020FEF7CE
:10462000BDF8012269460020FEF71BFA0020FEF7C4
:10463000DDF838BD77B581B00C4615460120FFF78F
:10464000DFFF134913480068FBF769FF0646FBF7D5
:1046500091FD0020FEF7A2F869468888FF2101310C
:1046600008404011022108430090012269460020C1
:10467000FEF7F7F9012201A90020FEF7F2F92A4618
:1046800021460020FEF7EDF90020FEF7AFF87FBDD0
:1046900000127A004C00001010B50020FEF7CEF892
:1046A000012205210020FDF71DFB0122052100202C
:1046B000FDF72AFC01220B210020FDF713FB01224C
:1046C0000B210020FDF720FC012207210020FDF72F
:1046D00009FB012207210020FDF716FC10BDF8B5EB
:1046E00004460D4616461F4625606660A76006987C
:1046F000E060012261682068FDF7F4FA61682068D3
:10470000FDF7A0F90022E168A068FDF7EBFA0020B0
:10471000009000230122E168A068FDF70DFBE1682D
:10472000A068FDF76FFA00202061F8BD10B50446BF
:10473000022006490870A620054908700846447002
:10474000024801780248FFF79BF810BD00000010F6
:104750001C090010FFB587B00899079800F05EFAB1
:104760000C26944B9A7959791879002300F036FA7F
:10477000904B5A7A197AD879012300F02FFA8D4993
:10478000487CFCF71FF98C49019000F057FD074663
:104790008A4900F0E3FC0290FCF7D0F880B2049064
:1047A0003046FCF70FF98649029000F0D7FC074627
:1047B000FCF7C4F880B27F4A03905188128892199E
:1047C00090B2049B039A00F083F9FF208005794F93
:1047D00000907F887F1DBBB2764F3F880A37BF1994
:1047E0007F1DBAB2734F797CF86800F0B7F90023E7
:1047F000FF221146962000F0F1F901230022114614
:10480000104600F0EBF90520069005906D4C0A2546
:104810003846007EA84208DC3A460094517E506932
:10482000059B069A00F006F933E004956149486952
:1048300004A900F06FF907465E49009448693946BB
:10484000059B069A00F0F6F8049521465E4800F0B4
:10485000F5FC01900598FCF7B5F80090019900F07F
:104860007DFC0290FCF76AF880B2059051494969D5
:104870007A00881804A900F04DF903904D4900947E
:1048800049697A008818059B069A039900F0D2F8C6
:1048900000BF00236422FF21104600F09FF901238E
:1048A00000221146104600F099F905200690454C6B
:1048B000404820300078002841D03E482030007821
:1048C0000A281BDC2146404800F0B8FC04900598FB
:1048D000FCF778F80390049900F040FC0746FCF7D9
:1048E0002DF880B20590334A203200945178203A56
:1048F000D069059B069A00F09DF820E004952D49AB
:10490000C86904A900F006F9039021462E4800F07A
:1049100095FC02900598FCF755F80190029900F07B
:104920001DFC0746FCF70AF880B205902149009467
:10493000C869059B069A039900F07CF800BF002324
:10494000FF226421084600F049F9012300221146A4
:10495000104600F043F90520069021461A4800F061
:104960006DFC04900598FCF72DF80390049900F075
:10497000F5FB0746FBF7E2FF80B205907F24E405D4
:104980000C482030007A0A280ADC0A4A20320094B7
:10499000517A203A506A059B069A00F04BF807E0DE
:1049A00004490094486A0A21059B069A00F042F8DF
:1049B0000BB0F0BD1C0A001000004C420000A040EB
:1049C000000074426666E63F00000842FFB581B011
:1049D00005460E4617460024A120154908708E7022
:1049E0003012C8700F713812487108466946098A3A
:1049F000C1806946498A01810AE0295D20460A3062
:104A00000B4A1154601C295C0A301154A01C84B25A
:104A1000285D0028F1D1E005000E054948702046C8
:104A20000A3081B20248FEF72BFF204605B0F0BDE8
:104A30001C090010F8B507460C4615461E466000D6
:104A40000A3080B20090A1200C4908704C708D7023
:104A50002812C8700E713012487108466946098BD9
:104A6000C1806946498B0181620039460A30FBF7F3
:104A7000F5FC02480099FEF703FFF8BD1C09001081
:104A80007FB50C4615460E200F490870A4200F492B
:104A90000870002048708C702012C8700D712812A8
:104AA000487168468089C8806846C0890881684620
:104AB0000088488168464088888103480178034817
:104AC000FEF7DEFE7FBD0000000000101C09001094
:104AD000F8B504460D4616461F4609200B490870D6
:104AE000A3200B4908704C7020128870CD702812DA
:104AF00008714E7130128871CF71381208720348F4
:104B000001780348FEF7BCFEF8BD0000000000106D
:104B10001C09001030B502460C46002100230DE0B0
:104B2000581CC3B2481C105C002801D0581CC3B2EA
:104B3000881CC1B22078984200DC06E0505C002856
:104B4000EED1481C105C0028EAD100BF23700D464E
:104B5000C80F4019C005000E30BD0000FFB583B07E
:104B6000074615461C460C200290A12018490870E3
:104B7000012048708D702812C87008466946098E59
:104B8000C1806946498E018100261BE010490C71E5
:104B9000201248710F480C9900F050FB0E4900900C
:104BA00000F0D0FB0190FBF7C9FE001984B2700041
:104BB000C11907480A7882724978C1720299FEF7D2
:104BC0005FFE761C04988642E0DB07B0F0BD000073
:104BD0001C090010000008420000A040F8B504467F
:104BE0000D4616461F4605200A490870A2200A49AC
:104BF0000870002F01D0012000E000200649487015
:104C000008468670C5700471024801780248FEF7B4
:104C100037FEF8BD000000101C090010F8B505466D
:104C20000F46002400262C215848FBF776FCA9E00B
:104C3000285D012802D0285D022838D1601C285C3C
:104C4000002834D1A21CAA5C504B1A71E21CAA5C49
:104C50005A71221DAA5C9A71621DAA5CDA71A21DAA
:104C6000AA5C1A72E21DAA5C5A7208342A19DA6028
:104C700000BF002107E0491C2218521CAA5C002A30
:104C800000D0491C801C2218AA5C002AF3D12218EB
:104C9000521CAA5C002AEED13C4B1974C20F1218A8
:104CA000D205120E00905A74821CA4186AE0285D86
:104CB000032815D1601C285C002811D1A01C285C99
:104CC000E11C695C0902084330490880201D285C0A
:104CD000611D695C090208432C494880A41D51E00C
:104CE000002E03D12A19294B5A610AE0012E03D163
:104CF0002A19264BDA6104E0022E02D12A19234B2D
:104D00005A620020002107E0491C2218521CAA5CAC
:104D1000002A00D0491C801C2218AA5C002A04D159
:104D20002218521CAA5C002A02D02218BA42EBDBDD
:104D3000002E08D1154B1976C20F1218D205120E8B
:104D400000905A761AE0012E0BD1104A20321170D1
:104D5000C20F1218D205130E0C4A20320090537065
:104D60000CE0022E0AD1094A20321172C20F121829
:104D7000D205130E054A203200905372821CA418EB
:104D8000761C00BFBC4200DA52E7F8BD1C0A0010D6
:104D900030B47446641E2578641CAB4204D3635D52
:104DA0005B00E31830BC18471D46F8E7002803D124
:104DB0000021034A516002E00021024A516070471D
:104DC0000040014000800140002803D10121034A36
:104DD000516002E00121024A5160704700400140E9
:104DE0000080014070B504460D46002C16D11748CE
:104DF0000068012149020843144908600020144951
:104E000008601449086014488561052012498862C9
:104E1000032048611220FDF795FB16E0012C14D108
:104E20000A480068A10208430849086000200B49AD
:104E300008600B4908600B488561052009498862B4
:104E4000032048611320FDF77DFB70BD8080044086
:104E5000A8010010B001001000400140AC0100109A
:104E6000B40100100080014008B5FDF7D1FEFCF749
:104E7000FFFDFFF739FA8C48FFF764FBE120800261
:104E8000FEF786FCFF20F530FCF782F8874888495A
:104E90000860884888490860884989480068FBF7A5
:104EA0003EFB884948430446FBF764F9FFF7F4FBEF
:104EB000FFF7C6FAFEF736FFFEF772F8FEF766FA5E
:104EC000FCF784FD7D21C9007D480068FBF727FBC6
:104ED000441E21460020FFF785FF642178480068C2
:104EE000FBF71DFB441E21460120FFF77BFF7349A2
:104EF00073480068FBF713FB0A2148430446FBF79D
:104F000039F90020FFF760FF0120FFF75DFF442023
:104F10006D49087049204870482088704520C87045
:104F2000C0E0FEF779FE69480078002804D0FEF75B
:104F30008BFD00206549087065480078002805D081
:104F40000020634908706348FBF7FCFF00246248B7
:104F5000007800281BD061480078002817D0012471
:104F600000205E4908700520FFF7E0FBF023FF22D8
:104F7000913200210846FFF7ABFD594800680178DF
:104F80007F23DB05052257480068FFF7E3FB524803
:104F90000078002840D05448007800283CD00124F4
:104FA00000205149087046239622AA210520FFF7C8
:104FB0008FFD4E4800680088002805D146239622C0
:104FC000AA210846FFF784FD494800680021415E98
:104FD000002921DD41204749087000231A46FF219E
:104FE0001846FFF7FBFD01208007AA2305220221B6
:104FF00000904048FFF71EFD3D4909680020085E0B
:1050000001239B07AA224B21FFF73AFD0023FF2231
:1050100011461046FFF7E2FD2F480078002840D0E7
:105020003548007800283CD001240020324908701F
:1050300046239622AA210846FFF74AFD2C4800681D
:105040000088002805D146239622AA210520FFF7D3
:105050003FFD264800680021415E002921DD4220F5
:105060002449087000231A46FF210846FFF7B6FDC1
:1050700001208007AA231A46022100901D48FFF74D
:10508000D9FC1A4909680020085E01239B07AA225F
:10509000E621FFF7F5FC0023FF2211461046FFF73B
:1050A0009DFD00BF3DE70000C0030010C1150000DA
:1050B00068010010DD1800006C01001000127A0079
:1050C0004C000010A0860100AC080010290100105F
:1050D0001001001058080010C00000102A01001034
:1050E000F8000010FC0000102B010010EC00001074
:1050F000E8000010350100102C01001001460029C5
:1051000006D1074A506802221043054A506005E064
:10511000044A506802221043024A5060704700005F
:10512000004001400080014010B5FBF709FD10BDB3
:1051300010B500290AD00878002807D0054878441F
:10514000FBF72AFE002801D0002010BD0248784459
:1051500010BD0000560300004E03000070B501258D
:105160000400ED074C4020D4441A01D2001B091959
:10517000C60D4B00F2B2FF2A29D01B0E2CD0000224
:105180000C02D31A2C43DC402843051910D2280AFC
:1051900002D3401C6D0611D0761EF6058019FF2A39
:1051A00000DA70BDC00DC00570BD694000F0D0F8D8
:1051B00001200543C541521C761CE8E764089C4069
:1051C000C90161408900E7D10124A043E4E71B0E37
:1051D000440200D0034870BD002AFCD1C00FC007B4
:1051E00070BD00BF0000C07F01230200DB050A4341
:1051F0000DD4DA4203D49A4207D488427047D84289
:1052000014D4D94212D48842704780427047DA429F
:1052100003D59A42F9D5814270475B004200DA42D9
:1052200004D24A00DA4201D28142704710B5024AE4
:10523000FBF7FEFC10BD00BF0900160470B542006C
:1052400064414B005C41120E39D01B0E38D0FF2A4E
:105250003CD0FF2B3AD040024902400A490A0600DE
:1052600045184E43000A090AD2184843ED017F3A17
:105270000104731A4019190C4318990F04D0012125
:105280005B0849075B1A521CD80904D3401CF5037C
:1052900001D19D0607D0FF2A08D2D50506D0E40724
:1052A0002043401970BD0125A843F4E7002A01DC22
:1052B000E00770BD2402FF202043C00570BD1B0E17
:1052C000FF2A03D0FF2B01D0E00770BDFF26450069
:1052D0003606B54206D84D00B54203D8D218FF2A8B
:1052E00000D0E7E7004870BD0000C07F01230A003E
:1052F000DB0502430DD4DA4203D49A4207D481423B
:105300007047D94214D4D84212D48142704789429E
:105310007047DA4203D59A42F9D5884270475B005C
:105320004A00DA4204D24200DA4201D2884270478F
:105330004840414010B5024A4840FBF779FC10BD97
:105340000900160470B501250400ED074C4022D475
:10535000441A02D26C40001B0919C60D4B00F2B270
:10536000FF2A4BD01B0E50D000020C02D31A2C4344
:10537000DC40A843051B05D5AD0019D36D08761E8A
:10538000521E37D0F605280A01D2801970BD70412F
:105390006D0603D070BD6940FFF7E6FE9C40090230
:1053A0006140490001D0401E70BD0124A04370BD82
:1053B0006D081DD001202B0C01D12D0410302B0EB7
:1053C00001D12D0208302B0F01D12D01001DAB0F93
:1053D00001D1AD00801CEB0F01D16D00401C6D00B0
:1053E000361A121A680AF5054019012A02DB70BD47
:1053F000002070BDC036300AC00770BD1B0E4402CD
:1054000001D1FF2B00D1024870BD002AF0D070BD41
:105410000000C07F0000005000000150000002505A
:105420000000035000000050000001500000025036
:10543000000003508182838485868788898B8C8DC8
:105440008E8F919293959697999A9C9D9FA0A2A3D7
:10545000A5A7A8AAACAEB0B2B3B5B7B9BCBEC0C21E
:10546000C5C7C9CCCED1D4D7D9DCDFE2E6E9ECF0B0
:10547000F3F7FAFEA455000000000010C001000080
:105480002C0E0000E0550000C00100104814000080
:10549000040100001001000043000000F8FFFFFFBE
:1054A0000040404040404040404041414141414037
:1054B00040404040404040404040404040404040EC
:1054C000400502020202020202020202020202027B
:1054D0000220202020202020202020020202020280
:1054E00002029090909090901010101010101010D8
:1054F00010101010101010101010101002020202E4
:105500000202888888888888080808080808080827
:105510000808080808080808080808080202020223
:10552000400000000000000000000000000000003B
:10553000000000000000000000000000000000006B
:10554000000000000000000000000000000000005B
:10555000000000000000000000000000000000004B
:10556000000000000000000000000000000000003B
:10557000000000000000000000000000000000002B
:10558000000000000000000000000000000000001B
:10559000000000000000000000000000000000000B
:1055A00000000000D1C2010230010AB8F11FFF1F44
:1055B000006CDC02FF3201041B010001C301015435
:1055C00041003A0521FFFFFFFFD5F81FFF1F06101E
:1055D000FF0FC8000A333D13334515033311130081
:04000005000000C136
:00000001FF
