:020000040800F2
:100000006806002021020008790300087103000837
:1000100075030008DB020008CD04000800000000A2
:100020000000000000000000000000009D03000828
:10003000DF020008000000007B0300086D040008D8
:100040003B0200083B0200083B0200083B0200089C
:100050003B0200083B0200083B0200083B0200088C
:100060003B0200083B0200083B0200083B0200087C
:100070003B0200083B0200083B0200083B0200086C
:100080003B0200083B0200083B0200083B0200085C
:100090003B0200083B0200083B0200083B0200084C
:1000A0003B0200083B0200083B0200083B0200083C
:1000B0003B0200083B0200083B0200083B0200082C
:1000C0003B0200083B0200083B0200083B0200081C
:1000D0003B0200083B0200083B0200083B0200080C
:1000E0003B0200083B0200083B0200083B020008FC
:1000F0003B0200083B0200083B0200083B020008EC
:100100003B0200083B0200083B0200083B020008DB
:100110003B0200083B0200083B0200083B020008CB
:100120003B0200083B0200083B0200083B020008BB
:100130003B0200083B0200083B0200083B020008AB
:100140003B0200083B0200083B0200083B0200089B
:100150003B0200083B0200083B0200083B0200088B
:100160003B0200083B0200083B0200083B0200087B
:100170003B0200083B0200083B0200083B0200086B
:100180003B02000800F002F800F03AF80AA090E8FC
:10019000000C82448344AAF10107DA4501D100F042
:1001A0002FF8AFF2090EBAE80F0013F0010F18BFD5
:1001B000FB1A43F001031847A0030000C00300002E
:1001C000103A24BF78C878C1FAD8520724BF30C883
:1001D00030C144BF04680C60704700000023002455
:1001E00000250026103A28BF78C1FBD8520728BF47
:1001F00030C148BF0B6070471FB51FBD10B510BDA3
:1002000000F031F81146FFF7F7FF00F061F900F058
:100210004FF803B4FFF7F2FF03BC00F057F80000FB
:100220000948804709480047FEE7FEE7FEE7FEE78A
:10023000FEE7FEE7FEE7FEE7FEE7FEE704480549C6
:10024000054A064B7047000071040008850100084C
:100250006800002068060020680200206802002074
:10026000704770477047754600F02CF8AE460500A1
:100270006946534620F00700854618B020B5FFF7C1
:10028000DDFFBDE820404FF000064FF000074FF0C3
:1002900000084FF0000B21F00701AC46ACE8C009A4
:1002A000ACE8C009ACE8C009ACE8C0098D467047AD
:1002B00010B50446AFF300802046BDE81040FFF7BC
:1002C000A8BF00000048704708000020014918201E
:1002D000ABBEFEE726000200704700BFFEE7704796
:1002E000F0B50A4600210023002400BF3DE00125AF
:1002F00005FA01F3156805EA03049C4234D1056848
:100300004F000326BE40B543056015794E00B54049
:100310000668354305601579012D02D01579022D47
:1003200016D185684F000326BE40B54385605579D8
:100330004E00B540866835438560456801268E408D
:10034000B5434560456896798E40B6B23543456001
:10035000C5684F000326BE40B543C560D5794E0041
:10036000B540C6683543C560491C1029BFD3F0BDF0
:1003700000BFFEE700BFFEE77047704729B1064A9D
:1003800012680243044B1A6004E0034A1268824375
:10039000014B1A607047000030380240704700007F
:1003A0000CB50020019000902D48006840F480308A
:1003B0002B49086000BF2A48006800F40030009014
:1003C0000198401C0190009818B90198B0F5A06FF1
:1003D000F1D12348006800F4003010B101200090F2
:1003E00001E0002000900098012838D11C48083016
:1003F00000681B49083108600846006840F4004066
:1004000008600846006840F4A05008601548091FBD
:100410000860081F006840F08070091F086000BF76
:100420000F48006800F000700028F9D040F2037017
:100430000D4908600A480830006820F003000849A8
:10044000083108600846006840F00200086000BFFC
:1004500003480830006800F00C000828F8D10CBDF3
:1004600000380240193C4005003C02407047000043
:1004700010B51248006840F00100104908600020E3
:100480000E49083108600D4800680D4908400B49C5
:1004900008600C48091D0860081F006820F48020CF
:1004A000091F0860002005490C310860FFF778FF3C
:1004B0004FF000600449086010BD000000380240A1
:1004C000FFFFF6FE1030002408ED00E000BFFEE75D
:1004D00001214020FFF752FF4FF4A0701C49086033
:1004E0000120087100208871032048710020C87124
:1004F0001848FFF7F5FE2AE04FF4A07015491831AF
:100500000880891C0880891E0880891C0880891E33
:100510000880891C0880891E0880891C0880891E23
:100520000880891C0880891E0880891C0880891E13
:100530000880891C0880891E0880891C0880891E03
:100540000880891C0880891E0880891C0880D3E7E0
:10055000000000200018024078050008000000207C
:1005600008000000C0010008800500080800002005
:1005700060060000DC010008000000000000000030
:040000050800018569
:00000001FF
